{
  "_format": "hh-sol-artifact-1",
  "contractName": "LendFi",
  "sourceName": "contracts/LendFi.sol",
  "abi": [
    {
      "anonymous": false,
      "inputs": [
        {
          "indexed": true,
          "internalType": "uint256",
          "name": "id",
          "type": "uint256"
        }
      ],
      "name": "ActivateLoan",
      "type": "event"
    },
    {
      "anonymous": false,
      "inputs": [
        {
          "indexed": true,
          "internalType": "uint256",
          "name": "id",
          "type": "uint256"
        },
        {
          "indexed": true,
          "internalType": "address",
          "name": "borrower",
          "type": "address"
        }
      ],
      "name": "ConfirmBorrower",
      "type": "event"
    },
    {
      "anonymous": false,
      "inputs": [
        {
          "indexed": true,
          "internalType": "uint256",
          "name": "id",
          "type": "uint256"
        },
        {
          "indexed": true,
          "internalType": "address",
          "name": "lender",
          "type": "address"
        }
      ],
      "name": "ConfirmLender",
      "type": "event"
    },
    {
      "anonymous": false,
      "inputs": [
        {
          "indexed": true,
          "internalType": "uint256",
          "name": "id",
          "type": "uint256"
        },
        {
          "indexed": false,
          "internalType": "bool",
          "name": "paidBack",
          "type": "bool"
        }
      ],
      "name": "ExecuteLoan",
      "type": "event"
    },
    {
      "anonymous": false,
      "inputs": [
        {
          "indexed": true,
          "internalType": "uint256",
          "name": "id",
          "type": "uint256"
        },
        {
          "indexed": true,
          "internalType": "address",
          "name": "revoker",
          "type": "address"
        }
      ],
      "name": "RevokeConfirmation",
      "type": "event"
    },
    {
      "anonymous": false,
      "inputs": [
        {
          "indexed": true,
          "internalType": "uint256",
          "name": "id",
          "type": "uint256"
        },
        {
          "indexed": true,
          "internalType": "address",
          "name": "lender",
          "type": "address"
        },
        {
          "indexed": true,
          "internalType": "address",
          "name": "borrower",
          "type": "address"
        },
        {
          "indexed": false,
          "internalType": "uint256",
          "name": "amount",
          "type": "uint256"
        },
        {
          "indexed": false,
          "internalType": "uint256",
          "name": "interest",
          "type": "uint256"
        },
        {
          "components": [
            {
              "internalType": "address",
              "name": "contractAddress",
              "type": "address"
            },
            {
              "internalType": "uint256",
              "name": "tokenId",
              "type": "uint256"
            }
          ],
          "indexed": false,
          "internalType": "struct LendFi.Token",
          "name": "collateral",
          "type": "tuple"
        },
        {
          "indexed": false,
          "internalType": "uint256",
          "name": "deadline",
          "type": "uint256"
        }
      ],
      "name": "SubmitLoan",
      "type": "event"
    },
    {
      "inputs": [
        {
          "internalType": "uint256",
          "name": "_id",
          "type": "uint256"
        }
      ],
      "name": "claimCollateral",
      "outputs": [],
      "stateMutability": "nonpayable",
      "type": "function"
    },
    {
      "inputs": [
        {
          "internalType": "uint256",
          "name": "_id",
          "type": "uint256"
        }
      ],
      "name": "confirmBorrower",
      "outputs": [],
      "stateMutability": "nonpayable",
      "type": "function"
    },
    {
      "inputs": [
        {
          "internalType": "uint256",
          "name": "_id",
          "type": "uint256"
        }
      ],
      "name": "confirmLender",
      "outputs": [],
      "stateMutability": "payable",
      "type": "function"
    },
    {
      "inputs": [
        {
          "internalType": "uint256",
          "name": "_id",
          "type": "uint256"
        },
        {
          "internalType": "uint256",
          "name": "_newDeadline",
          "type": "uint256"
        }
      ],
      "name": "extendDeadline",
      "outputs": [],
      "stateMutability": "nonpayable",
      "type": "function"
    },
    {
      "inputs": [
        {
          "internalType": "uint256",
          "name": "_id",
          "type": "uint256"
        }
      ],
      "name": "getLoan",
      "outputs": [
        {
          "components": [
            {
              "internalType": "uint256",
              "name": "id",
              "type": "uint256"
            },
            {
              "internalType": "address payable",
              "name": "lender",
              "type": "address"
            },
            {
              "internalType": "address payable",
              "name": "borrower",
              "type": "address"
            },
            {
              "internalType": "uint256",
              "name": "amount",
              "type": "uint256"
            },
            {
              "internalType": "uint256",
              "name": "interest",
              "type": "uint256"
            },
            {
              "components": [
                {
                  "internalType": "address",
                  "name": "contractAddress",
                  "type": "address"
                },
                {
                  "internalType": "uint256",
                  "name": "tokenId",
                  "type": "uint256"
                }
              ],
              "internalType": "struct LendFi.Token",
              "name": "collateral",
              "type": "tuple"
            },
            {
              "internalType": "uint256",
              "name": "deadline",
              "type": "uint256"
            },
            {
              "internalType": "bool",
              "name": "lenderConfirmed",
              "type": "bool"
            },
            {
              "internalType": "bool",
              "name": "borrowerConfirmed",
              "type": "bool"
            },
            {
              "internalType": "bool",
              "name": "active",
              "type": "bool"
            },
            {
              "internalType": "bool",
              "name": "executed",
              "type": "bool"
            },
            {
              "internalType": "bool",
              "name": "loanPaid",
              "type": "bool"
            },
            {
              "internalType": "bool",
              "name": "collateralClaimed",
              "type": "bool"
            }
          ],
          "internalType": "struct LendFi.Loan",
          "name": "",
          "type": "tuple"
        }
      ],
      "stateMutability": "view",
      "type": "function"
    },
    {
      "inputs": [],
      "name": "getSenderLoans",
      "outputs": [
        {
          "components": [
            {
              "internalType": "uint256",
              "name": "id",
              "type": "uint256"
            },
            {
              "internalType": "address payable",
              "name": "lender",
              "type": "address"
            },
            {
              "internalType": "address payable",
              "name": "borrower",
              "type": "address"
            },
            {
              "internalType": "uint256",
              "name": "amount",
              "type": "uint256"
            },
            {
              "internalType": "uint256",
              "name": "interest",
              "type": "uint256"
            },
            {
              "components": [
                {
                  "internalType": "address",
                  "name": "contractAddress",
                  "type": "address"
                },
                {
                  "internalType": "uint256",
                  "name": "tokenId",
                  "type": "uint256"
                }
              ],
              "internalType": "struct LendFi.Token",
              "name": "collateral",
              "type": "tuple"
            },
            {
              "internalType": "uint256",
              "name": "deadline",
              "type": "uint256"
            },
            {
              "internalType": "bool",
              "name": "lenderConfirmed",
              "type": "bool"
            },
            {
              "internalType": "bool",
              "name": "borrowerConfirmed",
              "type": "bool"
            },
            {
              "internalType": "bool",
              "name": "active",
              "type": "bool"
            },
            {
              "internalType": "bool",
              "name": "executed",
              "type": "bool"
            },
            {
              "internalType": "bool",
              "name": "loanPaid",
              "type": "bool"
            },
            {
              "internalType": "bool",
              "name": "collateralClaimed",
              "type": "bool"
            }
          ],
          "internalType": "struct LendFi.Loan[]",
          "name": "",
          "type": "tuple[]"
        }
      ],
      "stateMutability": "view",
      "type": "function"
    },
    {
      "inputs": [
        {
          "internalType": "uint256",
          "name": "_id",
          "type": "uint256"
        }
      ],
      "name": "paybackLoan",
      "outputs": [],
      "stateMutability": "payable",
      "type": "function"
    },
    {
      "inputs": [
        {
          "internalType": "uint256",
          "name": "_id",
          "type": "uint256"
        }
      ],
      "name": "revokeConfirmation",
      "outputs": [],
      "stateMutability": "nonpayable",
      "type": "function"
    },
    {
      "inputs": [
        {
          "internalType": "address payable",
          "name": "_lender",
          "type": "address"
        },
        {
          "internalType": "address payable",
          "name": "_borrower",
          "type": "address"
        },
        {
          "internalType": "uint256",
          "name": "_amount",
          "type": "uint256"
        },
        {
          "internalType": "uint256",
          "name": "_interest",
          "type": "uint256"
        },
        {
          "components": [
            {
              "internalType": "address",
              "name": "contractAddress",
              "type": "address"
            },
            {
              "internalType": "uint256",
              "name": "tokenId",
              "type": "uint256"
            }
          ],
          "internalType": "struct LendFi.Token",
          "name": "_collateral",
          "type": "tuple"
        },
        {
          "internalType": "uint256",
          "name": "_deadline",
          "type": "uint256"
        }
      ],
      "name": "submitLoan",
      "outputs": [],
      "stateMutability": "nonpayable",
      "type": "function"
    },
    {
      "inputs": [
        {
          "internalType": "address",
          "name": "",
          "type": "address"
        },
        {
          "internalType": "uint256",
          "name": "",
          "type": "uint256"
        }
      ],
      "name": "userLoans",
      "outputs": [
        {
          "internalType": "uint256",
          "name": "",
          "type": "uint256"
        }
      ],
      "stateMutability": "view",
      "type": "function"
    }
  ],
  "bytecode": "0x608060405234801561001057600080fd5b50614396806100206000396000f3fe6080604052600436106100915760003560e01c8063afa34c8511610059578063afa34c851461016c578063c1d80d0b14610195578063c49785b4146101be578063d16ef22a146101e7578063d8bad5bd1461020357610091565b806320ea8d86146100965780632d1fdef6146100bf5780633e5b5035146100e8578063504006ca1461010457806371951a7114610141575b600080fd5b3480156100a257600080fd5b506100bd60048036038101906100b8919061317a565b610240565b005b3480156100cb57600080fd5b506100e660048036038101906100e191906131a3565b6109c3565b005b61010260048036038101906100fd919061317a565b610c21565b005b34801561011057600080fd5b5061012b6004803603810190610126919061317a565b61108e565b6040516101389190613b97565b60405180910390f35b34801561014d57600080fd5b50610156611324565b60405161016391906138ba565b60405180910390f35b34801561017857600080fd5b50610193600480360381019061018e919061308c565b611721565b005b3480156101a157600080fd5b506101bc60048036038101906101b7919061317a565b611c15565b005b3480156101ca57600080fd5b506101e560048036038101906101e0919061317a565b6121a9565b005b61020160048036038101906101fc919061317a565b612638565b005b34801561020f57600080fd5b5061022a60048036038101906102259190613115565b612bc0565b6040516102379190613bb3565b60405180910390f35b806000805490508110610288576040517f08c379a000000000000000000000000000000000000000000000000000000000815260040161027f90613ab7565b60405180910390fd5b813373ffffffffffffffffffffffffffffffffffffffff16600082815481106102da577f4e487b7100000000000000000000000000000000000000000000000000000000600052603260045260246000fd5b906000526020600020906009020160010160009054906101000a900473ffffffffffffffffffffffffffffffffffffffff1673ffffffffffffffffffffffffffffffffffffffff1614806103c457503373ffffffffffffffffffffffffffffffffffffffff166000828154811061037a577f4e487b7100000000000000000000000000000000000000000000000000000000600052603260045260246000fd5b906000526020600020906009020160020160009054906101000a900473ffffffffffffffffffffffffffffffffffffffff1673ffffffffffffffffffffffffffffffffffffffff16145b610403576040517f08c379a00000000000000000000000000000000000000000000000000000000081526004016103fa90613b37565b60405180910390fd5b826000818154811061043e577f4e487b7100000000000000000000000000000000000000000000000000000000600052603260045260246000fd5b906000526020600020906009020160080160029054906101000a900460ff161561049d576040517f08c379a000000000000000000000000000000000000000000000000000000000815260040161049490613a77565b60405180910390fd5b83600081815481106104d8577f4e487b7100000000000000000000000000000000000000000000000000000000600052603260045260246000fd5b906000526020600020906009020160080160039054906101000a900460ff1615610537576040517f08c379a000000000000000000000000000000000000000000000000000000000815260040161052e90613a57565b60405180910390fd5b844260008281548110610573577f4e487b7100000000000000000000000000000000000000000000000000000000600052603260045260246000fd5b90600052602060002090600902016007015411156105c6576040517f08c379a00000000000000000000000000000000000000000000000000000000081526004016105bd90613997565b60405180910390fd5b6000808781548110610601577f4e487b7100000000000000000000000000000000000000000000000000000000600052603260045260246000fd5b906000526020600020906009020190503373ffffffffffffffffffffffffffffffffffffffff168160010160009054906101000a900473ffffffffffffffffffffffffffffffffffffffff1673ffffffffffffffffffffffffffffffffffffffff1614801561067e57508060080160009054906101000a900460ff165b806106f257503373ffffffffffffffffffffffffffffffffffffffff168160020160009054906101000a900473ffffffffffffffffffffffffffffffffffffffff1673ffffffffffffffffffffffffffffffffffffffff161480156106f157508060080160019054906101000a900460ff165b5b610731576040517f08c379a000000000000000000000000000000000000000000000000000000000815260040161072890613a97565b60405180910390fd5b3373ffffffffffffffffffffffffffffffffffffffff168160010160009054906101000a900473ffffffffffffffffffffffffffffffffffffffff1673ffffffffffffffffffffffffffffffffffffffff1614801561079e57508060080160009054906101000a900460ff165b156108635760008160010160009054906101000a900473ffffffffffffffffffffffffffffffffffffffff1673ffffffffffffffffffffffffffffffffffffffff166108fc83600301549081150290604051600060405180830381858888f19350505050905080610844576040517f08c379a000000000000000000000000000000000000000000000000000000000815260040161083b90613b77565b60405180910390fd5b60008260080160006101000a81548160ff021916908315150217905550505b3373ffffffffffffffffffffffffffffffffffffffff168160020160009054906101000a900473ffffffffffffffffffffffffffffffffffffffff1673ffffffffffffffffffffffffffffffffffffffff161480156108d057508060080160019054906101000a900460ff165b156109ba5760008160050160000160009054906101000a900473ffffffffffffffffffffffffffffffffffffffff1690508073ffffffffffffffffffffffffffffffffffffffff166323b872dd308460020160009054906101000a900473ffffffffffffffffffffffffffffffffffffffff1685600501600101546040518463ffffffff1660e01b81526004016109699392919061384c565b600060405180830381600087803b15801561098357600080fd5b505af1158015610997573d6000803e3d6000fd5b5050505060008260080160016101000a81548160ff021916908315150217905550505b50505050505050565b816000805490508110610a0b576040517f08c379a0000000000000000000000000000000000000000000000000000000008152600401610a0290613ab7565b60405180910390fd5b8260008181548110610a46577f4e487b7100000000000000000000000000000000000000000000000000000000600052603260045260246000fd5b906000526020600020906009020160080160039054906101000a900460ff1615610aa5576040517f08c379a0000000000000000000000000000000000000000000000000000000008152600401610a9c90613a57565b60405180910390fd5b833373ffffffffffffffffffffffffffffffffffffffff1660008281548110610af7577f4e487b7100000000000000000000000000000000000000000000000000000000600052603260045260246000fd5b906000526020600020906009020160010160009054906101000a900473ffffffffffffffffffffffffffffffffffffffff1673ffffffffffffffffffffffffffffffffffffffff1614610b7f576040517f08c379a0000000000000000000000000000000000000000000000000000000008152600401610b76906139b7565b60405180910390fd5b6000808681548110610bba577f4e487b7100000000000000000000000000000000000000000000000000000000600052603260045260246000fd5b9060005260206000209060090201905080600701548511610c10576040517f08c379a0000000000000000000000000000000000000000000000000000000008152600401610c07906139f7565b60405180910390fd5b848160070181905550505050505050565b806000805490508110610c69576040517f08c379a0000000000000000000000000000000000000000000000000000000008152600401610c6090613ab7565b60405180910390fd5b8160008181548110610ca4577f4e487b7100000000000000000000000000000000000000000000000000000000600052603260045260246000fd5b906000526020600020906009020160080160029054906101000a900460ff1615610d03576040517f08c379a0000000000000000000000000000000000000000000000000000000008152600401610cfa90613a77565b60405180910390fd5b8260008181548110610d3e577f4e487b7100000000000000000000000000000000000000000000000000000000600052603260045260246000fd5b906000526020600020906009020160080160039054906101000a900460ff1615610d9d576040517f08c379a0000000000000000000000000000000000000000000000000000000008152600401610d9490613a57565b60405180910390fd5b833373ffffffffffffffffffffffffffffffffffffffff1660008281548110610def577f4e487b7100000000000000000000000000000000000000000000000000000000600052603260045260246000fd5b906000526020600020906009020160010160009054906101000a900473ffffffffffffffffffffffffffffffffffffffff1673ffffffffffffffffffffffffffffffffffffffff1614610e77576040517f08c379a0000000000000000000000000000000000000000000000000000000008152600401610e6e906139b7565b60405180910390fd5b844260008281548110610eb3577f4e487b7100000000000000000000000000000000000000000000000000000000600052603260045260246000fd5b9060005260206000209060090201600701541015610f06576040517f08c379a0000000000000000000000000000000000000000000000000000000008152600401610efd90613977565b60405180910390fd5b6000808781548110610f41577f4e487b7100000000000000000000000000000000000000000000000000000000600052603260045260246000fd5b906000526020600020906009020190508060080160009054906101000a900460ff1615610fa3576040517f08c379a0000000000000000000000000000000000000000000000000000000008152600401610f9a90613ad7565b60405180910390fd5b80600301543414610fe9576040517f08c379a0000000000000000000000000000000000000000000000000000000008152600401610fe090613af7565b60405180910390fd5b60018160080160006101000a81548160ff0219169083151502179055508060080160009054906101000a900460ff16801561103257508060080160019054906101000a900460ff165b156110415761104087612bf1565b5b3373ffffffffffffffffffffffffffffffffffffffff16877f7438a0816a45d9fa60821e810f079b4a9d757940f6868a5acfcfe2b2d7f348b260405160405180910390a350505050505050565b611096612f16565b8160008054905081106110de576040517f08c379a00000000000000000000000000000000000000000000000000000000081526004016110d590613ab7565b60405180910390fd5b60008381548110611118577f4e487b7100000000000000000000000000000000000000000000000000000000600052603260045260246000fd5b9060005260206000209060090201604051806101a0016040529081600082015481526020016001820160009054906101000a900473ffffffffffffffffffffffffffffffffffffffff1673ffffffffffffffffffffffffffffffffffffffff1673ffffffffffffffffffffffffffffffffffffffff1681526020016002820160009054906101000a900473ffffffffffffffffffffffffffffffffffffffff1673ffffffffffffffffffffffffffffffffffffffff1673ffffffffffffffffffffffffffffffffffffffff1681526020016003820154815260200160048201548152602001600582016040518060400160405290816000820160009054906101000a900473ffffffffffffffffffffffffffffffffffffffff1673ffffffffffffffffffffffffffffffffffffffff1673ffffffffffffffffffffffffffffffffffffffff1681526020016001820154815250508152602001600782015481526020016008820160009054906101000a900460ff161515151581526020016008820160019054906101000a900460ff161515151581526020016008820160029054906101000a900460ff161515151581526020016008820160039054906101000a900460ff161515151581526020016008820160049054906101000a900460ff161515151581526020016008820160059054906101000a900460ff161515151581525050915050919050565b60606000600160003373ffffffffffffffffffffffffffffffffffffffff1673ffffffffffffffffffffffffffffffffffffffff1681526020019081526020016000208054806020026020016040519081016040528092919081815260200182805480156113b157602002820191906000526020600020905b81548152602001906001019080831161139d575b505050505090506000815167ffffffffffffffff8111156113fb577f4e487b7100000000000000000000000000000000000000000000000000000000600052604160045260246000fd5b60405190808252806020026020018201604052801561143457816020015b611421612f16565b8152602001906001900390816114195790505b50905060005b825181101561171857600083828151811061147e577f4e487b7100000000000000000000000000000000000000000000000000000000600052603260045260246000fd5b6020026020010151815481106114bd577f4e487b7100000000000000000000000000000000000000000000000000000000600052603260045260246000fd5b9060005260206000209060090201604051806101a0016040529081600082015481526020016001820160009054906101000a900473ffffffffffffffffffffffffffffffffffffffff1673ffffffffffffffffffffffffffffffffffffffff1673ffffffffffffffffffffffffffffffffffffffff1681526020016002820160009054906101000a900473ffffffffffffffffffffffffffffffffffffffff1673ffffffffffffffffffffffffffffffffffffffff1673ffffffffffffffffffffffffffffffffffffffff1681526020016003820154815260200160048201548152602001600582016040518060400160405290816000820160009054906101000a900473ffffffffffffffffffffffffffffffffffffffff1673ffffffffffffffffffffffffffffffffffffffff1673ffffffffffffffffffffffffffffffffffffffff1681526020016001820154815250508152602001600782015481526020016008820160009054906101000a900460ff161515151581526020016008820160019054906101000a900460ff161515151581526020016008820160029054906101000a900460ff161515151581526020016008820160039054906101000a900460ff161515151581526020016008820160049054906101000a900460ff161515151581526020016008820160059054906101000a900460ff1615151515815250508282815181106116fa577f4e487b7100000000000000000000000000000000000000000000000000000000600052603260045260246000fd5b6020026020010181905250808061171090613d99565b91505061143a565b50809250505090565b428111611763576040517f08c379a000000000000000000000000000000000000000000000000000000000815260040161175a90613937565b60405180910390fd5b838673ffffffffffffffffffffffffffffffffffffffff1631116117bc576040517f08c379a00000000000000000000000000000000000000000000000000000000081526004016117b390613b57565b60405180910390fd5b8473ffffffffffffffffffffffffffffffffffffffff168673ffffffffffffffffffffffffffffffffffffffff16141561182b576040517f08c379a0000000000000000000000000000000000000000000000000000000008152600401611822906139d7565b60405180910390fd5b6000808054905090506000604051806101a001604052808381526020018973ffffffffffffffffffffffffffffffffffffffff1681526020018873ffffffffffffffffffffffffffffffffffffffff16815260200187815260200186815260200185815260200184815260200160001515815260200160001515815260200160001515815260200160001515815260200160001515815260200160001515815250905060008190806001815401808255809150506001900390600052602060002090600902016000909190919091506000820151816000015560208201518160010160006101000a81548173ffffffffffffffffffffffffffffffffffffffff021916908373ffffffffffffffffffffffffffffffffffffffff16021790555060408201518160020160006101000a81548173ffffffffffffffffffffffffffffffffffffffff021916908373ffffffffffffffffffffffffffffffffffffffff160217905550606082015181600301556080820151816004015560a08201518160050160008201518160000160006101000a81548173ffffffffffffffffffffffffffffffffffffffff021916908373ffffffffffffffffffffffffffffffffffffffff16021790555060208201518160010155505060c0820151816007015560e08201518160080160006101000a81548160ff0219169083151502179055506101008201518160080160016101000a81548160ff0219169083151502179055506101208201518160080160026101000a81548160ff0219169083151502179055506101408201518160080160036101000a81548160ff0219169083151502179055506101608201518160080160046101000a81548160ff0219169083151502179055506101808201518160080160056101000a81548160ff0219169083151502179055505050600160008973ffffffffffffffffffffffffffffffffffffffff1673ffffffffffffffffffffffffffffffffffffffff168152602001908152602001600020829080600181540180825580915050600190039060005260206000200160009091909190915055600160008873ffffffffffffffffffffffffffffffffffffffff1673ffffffffffffffffffffffffffffffffffffffff1681526020019081526020016000208290806001815401808255809150506001900390600052602060002001600090919091909150558673ffffffffffffffffffffffffffffffffffffffff168873ffffffffffffffffffffffffffffffffffffffff16837f527de1c5803abb3b06511d7f38041c9b73e558c7fc15c2003a7ea2cf68cec5b489898989604051611c039493929190613bce565b60405180910390a45050505050505050565b806000805490508110611c5d576040517f08c379a0000000000000000000000000000000000000000000000000000000008152600401611c5490613ab7565b60405180910390fd5b8160008181548110611c98577f4e487b7100000000000000000000000000000000000000000000000000000000600052603260045260246000fd5b906000526020600020906009020160080160029054906101000a900460ff1615611cf7576040517f08c379a0000000000000000000000000000000000000000000000000000000008152600401611cee90613a77565b60405180910390fd5b8260008181548110611d32577f4e487b7100000000000000000000000000000000000000000000000000000000600052603260045260246000fd5b906000526020600020906009020160080160039054906101000a900460ff1615611d91576040517f08c379a0000000000000000000000000000000000000000000000000000000008152600401611d8890613a57565b60405180910390fd5b833373ffffffffffffffffffffffffffffffffffffffff1660008281548110611de3577f4e487b7100000000000000000000000000000000000000000000000000000000600052603260045260246000fd5b906000526020600020906009020160020160009054906101000a900473ffffffffffffffffffffffffffffffffffffffff1673ffffffffffffffffffffffffffffffffffffffff1614611e6b576040517f08c379a0000000000000000000000000000000000000000000000000000000008152600401611e6290613a37565b60405180910390fd5b844260008281548110611ea7577f4e487b7100000000000000000000000000000000000000000000000000000000600052603260045260246000fd5b9060005260206000209060090201600701541015611efa576040517f08c379a0000000000000000000000000000000000000000000000000000000008152600401611ef190613977565b60405180910390fd5b6000808781548110611f35577f4e487b7100000000000000000000000000000000000000000000000000000000600052603260045260246000fd5b906000526020600020906009020190508060080160019054906101000a900460ff1615611f97576040517f08c379a0000000000000000000000000000000000000000000000000000000008152600401611f8e90613ad7565b60405180910390fd5b60008160050160000160009054906101000a900473ffffffffffffffffffffffffffffffffffffffff1690508073ffffffffffffffffffffffffffffffffffffffff1663e985e9c533306040518363ffffffff1660e01b8152600401611ffe929190613823565b60206040518083038186803b15801561201657600080fd5b505afa15801561202a573d6000803e3d6000fd5b505050506040513d601f19601f8201168201806040525081019061204e9190613151565b61208d576040517f08c379a000000000000000000000000000000000000000000000000000000000815260040161208490613a17565b60405180910390fd5b8073ffffffffffffffffffffffffffffffffffffffff166323b872dd333085600501600101546040518463ffffffff1660e01b81526004016120d193929190613883565b600060405180830381600087803b1580156120eb57600080fd5b505af11580156120ff573d6000803e3d6000fd5b5050505060018260080160016101000a81548160ff0219169083151502179055508160080160009054906101000a900460ff16801561214c57508160080160019054906101000a900460ff165b1561215b5761215a88612bf1565b5b3373ffffffffffffffffffffffffffffffffffffffff16887fc7ee502cc77e20d7aa49199f09117bd921bc4bc5f09fde994eacc85e4571184060405160405180910390a35050505050505050565b8060008054905081106121f1576040517f08c379a00000000000000000000000000000000000000000000000000000000081526004016121e890613ab7565b60405180910390fd5b816000818154811061222c577f4e487b7100000000000000000000000000000000000000000000000000000000600052603260045260246000fd5b906000526020600020906009020160080160029054906101000a900460ff1661228a576040517f08c379a000000000000000000000000000000000000000000000000000000000815260040161228190613b17565b60405180910390fd5b82600081815481106122c5577f4e487b7100000000000000000000000000000000000000000000000000000000600052603260045260246000fd5b906000526020600020906009020160080160039054906101000a900460ff1615612324576040517f08c379a000000000000000000000000000000000000000000000000000000000815260040161231b90613a57565b60405180910390fd5b833373ffffffffffffffffffffffffffffffffffffffff1660008281548110612376577f4e487b7100000000000000000000000000000000000000000000000000000000600052603260045260246000fd5b906000526020600020906009020160010160009054906101000a900473ffffffffffffffffffffffffffffffffffffffff1673ffffffffffffffffffffffffffffffffffffffff16146123fe576040517f08c379a00000000000000000000000000000000000000000000000000000000081526004016123f5906139b7565b60405180910390fd5b84426000828154811061243a577f4e487b7100000000000000000000000000000000000000000000000000000000600052603260045260246000fd5b906000526020600020906009020160070154111561248d576040517f08c379a000000000000000000000000000000000000000000000000000000000815260040161248490613997565b60405180910390fd5b60008087815481106124c8577f4e487b7100000000000000000000000000000000000000000000000000000000600052603260045260246000fd5b9060005260206000209060090201905060008160050160000160009054906101000a900473ffffffffffffffffffffffffffffffffffffffff1690508073ffffffffffffffffffffffffffffffffffffffff166323b872dd308460010160009054906101000a900473ffffffffffffffffffffffffffffffffffffffff1685600501600101546040518463ffffffff1660e01b815260040161256c9392919061384c565b600060405180830381600087803b15801561258657600080fd5b505af115801561259a573d6000803e3d6000fd5b5050505060008260080160026101000a81548160ff02191690831515021790555060018260080160036101000a81548160ff02191690831515021790555060018260080160056101000a81548160ff021916908315150217905550877ffa2566d2a0191d4e94fe86ecddf448013cf426fbfda83d475391735e5c5cc857600060405161262691906138dc565b60405180910390a25050505050505050565b806000805490508110612680576040517f08c379a000000000000000000000000000000000000000000000000000000000815260040161267790613ab7565b60405180910390fd5b81600081815481106126bb577f4e487b7100000000000000000000000000000000000000000000000000000000600052603260045260246000fd5b906000526020600020906009020160080160029054906101000a900460ff16612719576040517f08c379a000000000000000000000000000000000000000000000000000000000815260040161271090613b17565b60405180910390fd5b8260008181548110612754577f4e487b7100000000000000000000000000000000000000000000000000000000600052603260045260246000fd5b906000526020600020906009020160080160039054906101000a900460ff16156127b3576040517f08c379a00000000000000000000000000000000000000000000000000000000081526004016127aa90613a57565b60405180910390fd5b833373ffffffffffffffffffffffffffffffffffffffff1660008281548110612805577f4e487b7100000000000000000000000000000000000000000000000000000000600052603260045260246000fd5b906000526020600020906009020160020160009054906101000a900473ffffffffffffffffffffffffffffffffffffffff1673ffffffffffffffffffffffffffffffffffffffff161461288d576040517f08c379a000000000000000000000000000000000000000000000000000000000815260040161288490613a37565b60405180910390fd5b8442600082815481106128c9577f4e487b7100000000000000000000000000000000000000000000000000000000600052603260045260246000fd5b906000526020600020906009020160070154101561291c576040517f08c379a000000000000000000000000000000000000000000000000000000000815260040161291390613977565b60405180910390fd5b6000808781548110612957577f4e487b7100000000000000000000000000000000000000000000000000000000600052603260045260246000fd5b9060005260206000209060090201905060008160040154826003015461297d9190613c82565b90508034146129c1576040517f08c379a00000000000000000000000000000000000000000000000000000000081526004016129b890613917565b60405180910390fd5b60008260010160009054906101000a900473ffffffffffffffffffffffffffffffffffffffff1673ffffffffffffffffffffffffffffffffffffffff166108fc839081150290604051600060405180830381858888f19350505050905080612a5e576040517f08c379a0000000000000000000000000000000000000000000000000000000008152600401612a55906138f7565b60405180910390fd5b60008360050160000160009054906101000a900473ffffffffffffffffffffffffffffffffffffffff1690508073ffffffffffffffffffffffffffffffffffffffff166323b872dd308660020160009054906101000a900473ffffffffffffffffffffffffffffffffffffffff1687600501600101546040518463ffffffff1660e01b8152600401612af29392919061384c565b600060405180830381600087803b158015612b0c57600080fd5b505af1158015612b20573d6000803e3d6000fd5b5050505060008460080160026101000a81548160ff02191690831515021790555060018460080160036101000a81548160ff02191690831515021790555060018460080160046101000a81548160ff021916908315150217905550897ffa2566d2a0191d4e94fe86ecddf448013cf426fbfda83d475391735e5c5cc8576001604051612bac91906138dc565b60405180910390a250505050505050505050565b60016020528160005260406000208181548110612bdc57600080fd5b90600052602060002001600091509150505481565b806000805490508110612c39576040517f08c379a0000000000000000000000000000000000000000000000000000000008152600401612c3090613ab7565b60405180910390fd5b8160008181548110612c74577f4e487b7100000000000000000000000000000000000000000000000000000000600052603260045260246000fd5b906000526020600020906009020160080160039054906101000a900460ff1615612cd3576040517f08c379a0000000000000000000000000000000000000000000000000000000008152600401612cca90613a57565b60405180910390fd5b8260008181548110612d0e577f4e487b7100000000000000000000000000000000000000000000000000000000600052603260045260246000fd5b906000526020600020906009020160080160029054906101000a900460ff1615612d6d576040517f08c379a0000000000000000000000000000000000000000000000000000000008152600401612d6490613a77565b60405180910390fd5b6000808581548110612da8577f4e487b7100000000000000000000000000000000000000000000000000000000600052603260045260246000fd5b906000526020600020906009020190508060080160009054906101000a900460ff168015612de457508060080160019054906101000a900460ff165b612e23576040517f08c379a0000000000000000000000000000000000000000000000000000000008152600401612e1a90613957565b60405180910390fd5b60008160020160009054906101000a900473ffffffffffffffffffffffffffffffffffffffff1673ffffffffffffffffffffffffffffffffffffffff166108fc83600301549081150290604051600060405180830381858888f19350505050905080612ec4576040517f08c379a0000000000000000000000000000000000000000000000000000000008152600401612ebb906138f7565b60405180910390fd5b60018260080160026101000a81548160ff021916908315150217905550857f77a86aa96233b4ed87b72b998e9b9e8b207ca1e4070b49c0622f7e0444fd6cb860405160405180910390a2505050505050565b604051806101a0016040528060008152602001600073ffffffffffffffffffffffffffffffffffffffff168152602001600073ffffffffffffffffffffffffffffffffffffffff1681526020016000815260200160008152602001612f79612fbc565b8152602001600081526020016000151581526020016000151581526020016000151581526020016000151581526020016000151581526020016000151581525090565b6040518060400160405280600073ffffffffffffffffffffffffffffffffffffffff168152602001600081525090565b600081359050612ffb81614304565b92915050565b6000813590506130108161431b565b92915050565b60008151905061302581614332565b92915050565b60006040828403121561303d57600080fd5b6130476040613c13565b9050600061305784828501612fec565b600083015250602061306b84828501613077565b60208301525092915050565b60008135905061308681614349565b92915050565b60008060008060008060e087890312156130a557600080fd5b60006130b389828a01613001565b96505060206130c489828a01613001565b95505060406130d589828a01613077565b94505060606130e689828a01613077565b93505060806130f789828a0161302b565b92505060c061310889828a01613077565b9150509295509295509295565b6000806040838503121561312857600080fd5b600061313685828601612fec565b925050602061314785828601613077565b9150509250929050565b60006020828403121561316357600080fd5b600061317184828501613016565b91505092915050565b60006020828403121561318c57600080fd5b600061319a84828501613077565b91505092915050565b600080604083850312156131b657600080fd5b60006131c485828601613077565b92505060206131d585828601613077565b9150509250929050565b60006131eb838361358f565b6101c08301905092915050565b61320181613d32565b82525050565b61321081613cea565b82525050565b61321f81613cd8565b82525050565b61322e81613cd8565b82525050565b600061323f82613c48565b6132498185613c60565b935061325483613c38565b8060005b8381101561328557815161326c88826131df565b975061327783613c53565b925050600181019050613258565b5085935050505092915050565b61329b81613cfc565b82525050565b6132aa81613cfc565b82525050565b60006132bd602583613c71565b91506132c882613e51565b604082019050919050565b60006132e0602883613c71565b91506132eb82613ea0565b604082019050919050565b6000613303601f83613c71565b915061330e82613eef565b602082019050919050565b6000613326601383613c71565b915061333182613f18565b602082019050919050565b6000613349601f83613c71565b915061335482613f41565b602082019050919050565b600061336c601883613c71565b915061337782613f6a565b602082019050919050565b600061338f602383613c71565b915061339a82613f93565b604082019050919050565b60006133b2602b83613c71565b91506133bd82613fe2565b604082019050919050565b60006133d5602083613c71565b91506133e082614031565b602082019050919050565b60006133f8602783613c71565b91506134038261405a565b604082019050919050565b600061341b602583613c71565b9150613426826140a9565b604082019050919050565b600061343e601e83613c71565b9150613449826140f8565b602082019050919050565b6000613461601b83613c71565b915061346c82614121565b602082019050919050565b6000613484602083613c71565b915061348f8261414a565b602082019050919050565b60006134a7601883613c71565b91506134b282614173565b602082019050919050565b60006134ca601f83613c71565b91506134d58261419c565b602082019050919050565b60006134ed603083613c71565b91506134f8826141c5565b604082019050919050565b6000613510601783613c71565b915061351b82614214565b602082019050919050565b6000613533602683613c71565b915061353e8261423d565b604082019050919050565b6000613556601d83613c71565b91506135618261428c565b602082019050919050565b6000613579602683613c71565b9150613584826142b5565b604082019050919050565b6101c0820160008201516135a66000850182613805565b5060208201516135b96020850182613207565b5060408201516135cc6040850182613207565b5060608201516135df6060850182613805565b5060808201516135f26080850182613805565b5060a082015161360560a08501826137a7565b5060c082015161361860e0850182613805565b5060e082015161362c610100850182613292565b50610100820151613641610120850182613292565b50610120820151613656610140850182613292565b5061014082015161366b610160850182613292565b50610160820151613680610180850182613292565b506101808201516136956101a0850182613292565b50505050565b6101c0820160008201516136b26000850182613805565b5060208201516136c56020850182613207565b5060408201516136d86040850182613207565b5060608201516136eb6060850182613805565b5060808201516136fe6080850182613805565b5060a082015161371160a08501826137a7565b5060c082015161372460e0850182613805565b5060e0820151613738610100850182613292565b5061010082015161374d610120850182613292565b50610120820151613762610140850182613292565b50610140820151613777610160850182613292565b5061016082015161378c610180850182613292565b506101808201516137a16101a0850182613292565b50505050565b6040820160008201516137bd6000850182613216565b5060208201516137d06020850182613805565b50505050565b6040820160008201516137ec6000850182613216565b5060208201516137ff6020850182613805565b50505050565b61380e81613d28565b82525050565b61381d81613d28565b82525050565b60006040820190506138386000830185613225565b6138456020830184613225565b9392505050565b60006060820190506138616000830186613225565b61386e60208301856131f8565b61387b6040830184613814565b949350505050565b60006060820190506138986000830186613225565b6138a56020830185613225565b6138b26040830184613814565b949350505050565b600060208201905081810360008301526138d48184613234565b905092915050565b60006020820190506138f160008301846132a1565b92915050565b60006020820190508181036000830152613910816132b0565b9050919050565b60006020820190508181036000830152613930816132d3565b9050919050565b60006020820190508181036000830152613950816132f6565b9050919050565b6000602082019050818103600083015261397081613319565b9050919050565b600060208201905081810360008301526139908161333c565b9050919050565b600060208201905081810360008301526139b08161335f565b9050919050565b600060208201905081810360008301526139d081613382565b9050919050565b600060208201905081810360008301526139f0816133a5565b9050919050565b60006020820190508181036000830152613a10816133c8565b9050919050565b60006020820190508181036000830152613a30816133eb565b9050919050565b60006020820190508181036000830152613a508161340e565b9050919050565b60006020820190508181036000830152613a7081613431565b9050919050565b60006020820190508181036000830152613a9081613454565b9050919050565b60006020820190508181036000830152613ab081613477565b9050919050565b60006020820190508181036000830152613ad08161349a565b9050919050565b60006020820190508181036000830152613af0816134bd565b9050919050565b60006020820190508181036000830152613b10816134e0565b9050919050565b60006020820190508181036000830152613b3081613503565b9050919050565b60006020820190508181036000830152613b5081613526565b9050919050565b60006020820190508181036000830152613b7081613549565b9050919050565b60006020820190508181036000830152613b908161356c565b9050919050565b60006101c082019050613bad600083018461369b565b92915050565b6000602082019050613bc86000830184613814565b92915050565b600060a082019050613be36000830187613814565b613bf06020830186613814565b613bfd60408301856137d6565b613c0a6080830184613814565b95945050505050565b6000613c1d613c2e565b9050613c298282613d68565b919050565b6000604051905090565b6000819050602082019050919050565b600081519050919050565b6000602082019050919050565b600082825260208201905092915050565b600082825260208201905092915050565b6000613c8d82613d28565b9150613c9883613d28565b9250827fffffffffffffffffffffffffffffffffffffffffffffffffffffffffffffffff03821115613ccd57613ccc613de2565b5b828201905092915050565b6000613ce382613d08565b9050919050565b6000613cf582613d08565b9050919050565b60008115159050919050565b600073ffffffffffffffffffffffffffffffffffffffff82169050919050565b6000819050919050565b6000613d3d82613d44565b9050919050565b6000613d4f82613d56565b9050919050565b6000613d6182613d08565b9050919050565b613d7182613e40565b810181811067ffffffffffffffff82111715613d9057613d8f613e11565b5b80604052505050565b6000613da482613d28565b91507fffffffffffffffffffffffffffffffffffffffffffffffffffffffffffffffff821415613dd757613dd6613de2565b5b600182019050919050565b7f4e487b7100000000000000000000000000000000000000000000000000000000600052601160045260246000fd5b7f4e487b7100000000000000000000000000000000000000000000000000000000600052604160045260246000fd5b6000601f19601f8301169050919050565b7f536f6d657468696e672077656e742077726f6e6720776974682074686520706160008201527f796d656e74000000000000000000000000000000000000000000000000000000602082015250565b7f506c6561736520706179206261636b2074686520657861637420616d6f756e7460008201527f20796f75206f7765000000000000000000000000000000000000000000000000602082015250565b7f446561646c696e652063616e206e6f7420626520696e20746865207061737400600082015250565b7f4c6f616e20697320756e636f6e6669726d656400000000000000000000000000600082015250565b7f54686973206c6f616e7320646561646c696e6520697320657863656564656400600082015250565b7f54686973206c6f616e206973206e6f7420657870697265640000000000000000600082015250565b7f596f7520617265206e6f7420746865206c656e646572206f662074686973206c60008201527f6f616e0000000000000000000000000000000000000000000000000000000000602082015250565b7f546865206c656e64657220616e6420626f72726f7765722063616e206e6f742060008201527f6265207468652073616d65000000000000000000000000000000000000000000602082015250565b7f596f752063616e206e6f742073686f7274656e2074686520646561646c696e65600082015250565b7f546f6b656e206973206e6f7420617070726f76656420666f722074686973206360008201527f6f6e747261637400000000000000000000000000000000000000000000000000602082015250565b7f596f7520617265206e6f742074686520626f72726f776572206f66207468697360008201527f206c6f616e000000000000000000000000000000000000000000000000000000602082015250565b7f54686973206c6f616e2077617320616c72656164792065786563757465640000600082015250565b7f54686973206c6f616e20697320616c7265616479206163746976650000000000600082015250565b7f596f752068617665206e6f7420636f6e6669726d65642074686973206c6f616e600082015250565b7f54686973206c6f616e20646f6573206e6f742065786973740000000000000000600082015250565b7f596f7520616c726561647920636f6e6669726d65642074686973206c6f616e00600082015250565b7f506c656173652073656e642074686520616d6f756e7420796f7520616772656560008201527f6420746f206c6f616e696e67206f757400000000000000000000000000000000602082015250565b7f54686973206c6f616e206973206e6f7420616374697665000000000000000000600082015250565b7f596f7520617265206e6f742070617274696369706174696e6720696e2074686960008201527f73206c6f616e0000000000000000000000000000000000000000000000000000602082015250565b7f4c656e6465722068617320696e73756666696369656e742066756e6473000000600082015250565b7f536f6d657468696e672077656e742077726f6e6720776974682074686520747260008201527f616e736665720000000000000000000000000000000000000000000000000000602082015250565b61430d81613cd8565b811461431857600080fd5b50565b61432481613cea565b811461432f57600080fd5b50565b61433b81613cfc565b811461434657600080fd5b50565b61435281613d28565b811461435d57600080fd5b5056fea26469706673582212206f7a9f349c22966c2aced75139d0fefb8720c0e8a71faa3c2668179497f775a564736f6c63430008040033",
  "linkReferences": {},
  "deployedLinkReferences": {}
}