{
  "_format": "hh-sol-artifact-1",
  "contractName": "LoanFactory",
  "sourceName": "contracts/LoanFactory.sol",
  "abi": [
    {
      "anonymous": false,
      "inputs": [
        {
          "indexed": true,
          "internalType": "uint256",
          "name": "id",
          "type": "uint256"
        }
      ],
      "name": "ActivateLoan",
      "type": "event"
    },
    {
      "anonymous": false,
      "inputs": [
        {
          "indexed": true,
          "internalType": "uint256",
          "name": "id",
          "type": "uint256"
        },
        {
          "indexed": true,
          "internalType": "address",
          "name": "borrower",
          "type": "address"
        }
      ],
      "name": "ConfirmBorrower",
      "type": "event"
    },
    {
      "anonymous": false,
      "inputs": [
        {
          "indexed": true,
          "internalType": "uint256",
          "name": "id",
          "type": "uint256"
        },
        {
          "indexed": true,
          "internalType": "address",
          "name": "lender",
          "type": "address"
        }
      ],
      "name": "ConfirmLender",
      "type": "event"
    },
    {
      "anonymous": false,
      "inputs": [
        {
          "indexed": true,
          "internalType": "uint256",
          "name": "id",
          "type": "uint256"
        },
        {
          "indexed": false,
          "internalType": "bool",
          "name": "paidBack",
          "type": "bool"
        }
      ],
      "name": "ExecuteLoan",
      "type": "event"
    },
    {
      "anonymous": false,
      "inputs": [
        {
          "indexed": true,
          "internalType": "uint256",
          "name": "id",
          "type": "uint256"
        },
        {
          "indexed": true,
          "internalType": "address",
          "name": "revoker",
          "type": "address"
        }
      ],
      "name": "RevokeConfirmation",
      "type": "event"
    },
    {
      "anonymous": false,
      "inputs": [
        {
          "indexed": true,
          "internalType": "uint256",
          "name": "id",
          "type": "uint256"
        },
        {
          "indexed": true,
          "internalType": "address",
          "name": "lender",
          "type": "address"
        },
        {
          "indexed": true,
          "internalType": "address",
          "name": "borrower",
          "type": "address"
        },
        {
          "indexed": false,
          "internalType": "uint256",
          "name": "amount",
          "type": "uint256"
        },
        {
          "indexed": false,
          "internalType": "uint256",
          "name": "interest",
          "type": "uint256"
        },
        {
          "components": [
            {
              "internalType": "address",
              "name": "contractAddress",
              "type": "address"
            },
            {
              "internalType": "uint256",
              "name": "tokenId",
              "type": "uint256"
            }
          ],
          "indexed": false,
          "internalType": "struct LoanFactory.Token",
          "name": "collateral",
          "type": "tuple"
        },
        {
          "indexed": false,
          "internalType": "uint256",
          "name": "deadline",
          "type": "uint256"
        }
      ],
      "name": "SubmitLoan",
      "type": "event"
    },
    {
      "inputs": [
        {
          "internalType": "uint256",
          "name": "_id",
          "type": "uint256"
        }
      ],
      "name": "claimCollateral",
      "outputs": [],
      "stateMutability": "nonpayable",
      "type": "function"
    },
    {
      "inputs": [
        {
          "internalType": "uint256",
          "name": "_id",
          "type": "uint256"
        }
      ],
      "name": "confirmBorrower",
      "outputs": [],
      "stateMutability": "nonpayable",
      "type": "function"
    },
    {
      "inputs": [
        {
          "internalType": "uint256",
          "name": "_id",
          "type": "uint256"
        }
      ],
      "name": "confirmLender",
      "outputs": [],
      "stateMutability": "payable",
      "type": "function"
    },
    {
      "inputs": [
        {
          "internalType": "uint256",
          "name": "_id",
          "type": "uint256"
        },
        {
          "internalType": "uint256",
          "name": "_newDeadline",
          "type": "uint256"
        }
      ],
      "name": "extendDeadline",
      "outputs": [],
      "stateMutability": "nonpayable",
      "type": "function"
    },
    {
      "inputs": [
        {
          "internalType": "uint256",
          "name": "_id",
          "type": "uint256"
        }
      ],
      "name": "getLoan",
      "outputs": [
        {
          "components": [
            {
              "internalType": "uint256",
              "name": "id",
              "type": "uint256"
            },
            {
              "internalType": "address payable",
              "name": "lender",
              "type": "address"
            },
            {
              "internalType": "address payable",
              "name": "borrower",
              "type": "address"
            },
            {
              "internalType": "uint256",
              "name": "amount",
              "type": "uint256"
            },
            {
              "internalType": "uint256",
              "name": "interest",
              "type": "uint256"
            },
            {
              "components": [
                {
                  "internalType": "address",
                  "name": "contractAddress",
                  "type": "address"
                },
                {
                  "internalType": "uint256",
                  "name": "tokenId",
                  "type": "uint256"
                }
              ],
              "internalType": "struct LoanFactory.Token",
              "name": "collateral",
              "type": "tuple"
            },
            {
              "internalType": "uint256",
              "name": "deadline",
              "type": "uint256"
            },
            {
              "internalType": "bool",
              "name": "lenderConfirmed",
              "type": "bool"
            },
            {
              "internalType": "bool",
              "name": "borrowerConfirmed",
              "type": "bool"
            },
            {
              "internalType": "bool",
              "name": "active",
              "type": "bool"
            },
            {
              "internalType": "bool",
              "name": "executed",
              "type": "bool"
            },
            {
              "internalType": "bool",
              "name": "loanPaid",
              "type": "bool"
            },
            {
              "internalType": "bool",
              "name": "collateralClaimed",
              "type": "bool"
            }
          ],
          "internalType": "struct LoanFactory.Loan",
          "name": "",
          "type": "tuple"
        }
      ],
      "stateMutability": "view",
      "type": "function"
    },
    {
      "inputs": [],
      "name": "getSenderLoans",
      "outputs": [
        {
          "components": [
            {
              "internalType": "uint256",
              "name": "id",
              "type": "uint256"
            },
            {
              "internalType": "address payable",
              "name": "lender",
              "type": "address"
            },
            {
              "internalType": "address payable",
              "name": "borrower",
              "type": "address"
            },
            {
              "internalType": "uint256",
              "name": "amount",
              "type": "uint256"
            },
            {
              "internalType": "uint256",
              "name": "interest",
              "type": "uint256"
            },
            {
              "components": [
                {
                  "internalType": "address",
                  "name": "contractAddress",
                  "type": "address"
                },
                {
                  "internalType": "uint256",
                  "name": "tokenId",
                  "type": "uint256"
                }
              ],
              "internalType": "struct LoanFactory.Token",
              "name": "collateral",
              "type": "tuple"
            },
            {
              "internalType": "uint256",
              "name": "deadline",
              "type": "uint256"
            },
            {
              "internalType": "bool",
              "name": "lenderConfirmed",
              "type": "bool"
            },
            {
              "internalType": "bool",
              "name": "borrowerConfirmed",
              "type": "bool"
            },
            {
              "internalType": "bool",
              "name": "active",
              "type": "bool"
            },
            {
              "internalType": "bool",
              "name": "executed",
              "type": "bool"
            },
            {
              "internalType": "bool",
              "name": "loanPaid",
              "type": "bool"
            },
            {
              "internalType": "bool",
              "name": "collateralClaimed",
              "type": "bool"
            }
          ],
          "internalType": "struct LoanFactory.Loan[]",
          "name": "",
          "type": "tuple[]"
        }
      ],
      "stateMutability": "view",
      "type": "function"
    },
    {
      "inputs": [
        {
          "internalType": "uint256",
          "name": "_id",
          "type": "uint256"
        }
      ],
      "name": "paybackLoan",
      "outputs": [],
      "stateMutability": "payable",
      "type": "function"
    },
    {
      "inputs": [
        {
          "internalType": "address payable",
          "name": "_lender",
          "type": "address"
        },
        {
          "internalType": "address payable",
          "name": "_borrower",
          "type": "address"
        },
        {
          "internalType": "uint256",
          "name": "_amount",
          "type": "uint256"
        },
        {
          "internalType": "uint256",
          "name": "_interest",
          "type": "uint256"
        },
        {
          "components": [
            {
              "internalType": "address",
              "name": "contractAddress",
              "type": "address"
            },
            {
              "internalType": "uint256",
              "name": "tokenId",
              "type": "uint256"
            }
          ],
          "internalType": "struct LoanFactory.Token",
          "name": "_collateral",
          "type": "tuple"
        },
        {
          "internalType": "uint256",
          "name": "_deadline",
          "type": "uint256"
        }
      ],
      "name": "submitLoan",
      "outputs": [],
      "stateMutability": "nonpayable",
      "type": "function"
    },
    {
      "inputs": [
        {
          "internalType": "address",
          "name": "",
          "type": "address"
        },
        {
          "internalType": "uint256",
          "name": "",
          "type": "uint256"
        }
      ],
      "name": "userLoans",
      "outputs": [
        {
          "internalType": "uint256",
          "name": "",
          "type": "uint256"
        }
      ],
      "stateMutability": "view",
      "type": "function"
    }
  ],
  "bytecode": "0x608060405234801561001057600080fd5b50613b59806100206000396000f3fe6080604052600436106100865760003560e01c8063afa34c8511610059578063afa34c8514610138578063c1d80d0b14610161578063c49785b41461018a578063d16ef22a146101b3578063d8bad5bd146101cf57610086565b80632d1fdef61461008b5780633e5b5035146100b4578063504006ca146100d057806371951a711461010d575b600080fd5b34801561009757600080fd5b506100b260048036038101906100ad9190612a4a565b61020c565b005b6100ce60048036038101906100c99190612a21565b61046a565b005b3480156100dc57600080fd5b506100f760048036038101906100f29190612a21565b6108f2565b6040516101049190613375565b60405180910390f35b34801561011957600080fd5b50610122610b88565b60405161012f91906130f8565b60405180910390f35b34801561014457600080fd5b5061015f600480360381019061015a9190612933565b610f85565b005b34801561016d57600080fd5b5061018860048036038101906101839190612a21565b611420565b005b34801561019657600080fd5b506101b160048036038101906101ac9190612a21565b611a7e565b005b6101cd60048036038101906101c89190612a21565b611ec4565b005b3480156101db57600080fd5b506101f660048036038101906101f191906129bc565b612467565b6040516102039190613391565b60405180910390f35b816000805490508110610254576040517f08c379a000000000000000000000000000000000000000000000000000000000815260040161024b906132f5565b60405180910390fd5b826000818154811061028f577f4e487b7100000000000000000000000000000000000000000000000000000000600052603260045260246000fd5b906000526020600020906009020160080160039054906101000a900460ff16156102ee576040517f08c379a00000000000000000000000000000000000000000000000000000000081526004016102e5906132b5565b60405180910390fd5b833373ffffffffffffffffffffffffffffffffffffffff1660008281548110610340577f4e487b7100000000000000000000000000000000000000000000000000000000600052603260045260246000fd5b906000526020600020906009020160010160009054906101000a900473ffffffffffffffffffffffffffffffffffffffff1673ffffffffffffffffffffffffffffffffffffffff16146103c8576040517f08c379a00000000000000000000000000000000000000000000000000000000081526004016103bf906131f5565b60405180910390fd5b6000808681548110610403577f4e487b7100000000000000000000000000000000000000000000000000000000600052603260045260246000fd5b9060005260206000209060090201905080600701548511610459576040517f08c379a000000000000000000000000000000000000000000000000000000000815260040161045090613255565b60405180910390fd5b848160070181905550505050505050565b8060008054905081106104b2576040517f08c379a00000000000000000000000000000000000000000000000000000000081526004016104a9906132f5565b60405180910390fd5b81600081815481106104ed577f4e487b7100000000000000000000000000000000000000000000000000000000600052603260045260246000fd5b906000526020600020906009020160080160029054906101000a900460ff161561054c576040517f08c379a0000000000000000000000000000000000000000000000000000000008152600401610543906132d5565b60405180910390fd5b8260008181548110610587577f4e487b7100000000000000000000000000000000000000000000000000000000600052603260045260246000fd5b906000526020600020906009020160080160039054906101000a900460ff16156105e6576040517f08c379a00000000000000000000000000000000000000000000000000000000081526004016105dd906132b5565b60405180910390fd5b833373ffffffffffffffffffffffffffffffffffffffff1660008281548110610638577f4e487b7100000000000000000000000000000000000000000000000000000000600052603260045260246000fd5b906000526020600020906009020160010160009054906101000a900473ffffffffffffffffffffffffffffffffffffffff1673ffffffffffffffffffffffffffffffffffffffff16146106c0576040517f08c379a00000000000000000000000000000000000000000000000000000000081526004016106b7906131f5565b60405180910390fd5b8442600082815481106106fc577f4e487b7100000000000000000000000000000000000000000000000000000000600052603260045260246000fd5b906000526020600020906009020160070154101561074f576040517f08c379a0000000000000000000000000000000000000000000000000000000008152600401610746906131b5565b60405180910390fd5b600080878154811061078a577f4e487b7100000000000000000000000000000000000000000000000000000000600052603260045260246000fd5b906000526020600020906009020190508060080160009054906101000a900460ff16156107ec576040517f08c379a00000000000000000000000000000000000000000000000000000000081526004016107e390613315565b60405180910390fd5b606481600301546107fd91906134b6565b816003015461080c9190613460565b341461084d576040517f08c379a000000000000000000000000000000000000000000000000000000000815260040161084490613335565b60405180910390fd5b60018160080160006101000a81548160ff0219169083151502179055508060080160009054906101000a900460ff16801561089657508060080160019054906101000a900460ff165b156108a5576108a487612498565b5b3373ffffffffffffffffffffffffffffffffffffffff16877f7438a0816a45d9fa60821e810f079b4a9d757940f6868a5acfcfe2b2d7f348b260405160405180910390a350505050505050565b6108fa6127bd565b816000805490508110610942576040517f08c379a0000000000000000000000000000000000000000000000000000000008152600401610939906132f5565b60405180910390fd5b6000838154811061097c577f4e487b7100000000000000000000000000000000000000000000000000000000600052603260045260246000fd5b9060005260206000209060090201604051806101a0016040529081600082015481526020016001820160009054906101000a900473ffffffffffffffffffffffffffffffffffffffff1673ffffffffffffffffffffffffffffffffffffffff1673ffffffffffffffffffffffffffffffffffffffff1681526020016002820160009054906101000a900473ffffffffffffffffffffffffffffffffffffffff1673ffffffffffffffffffffffffffffffffffffffff1673ffffffffffffffffffffffffffffffffffffffff1681526020016003820154815260200160048201548152602001600582016040518060400160405290816000820160009054906101000a900473ffffffffffffffffffffffffffffffffffffffff1673ffffffffffffffffffffffffffffffffffffffff1673ffffffffffffffffffffffffffffffffffffffff1681526020016001820154815250508152602001600782015481526020016008820160009054906101000a900460ff161515151581526020016008820160019054906101000a900460ff161515151581526020016008820160029054906101000a900460ff161515151581526020016008820160039054906101000a900460ff161515151581526020016008820160049054906101000a900460ff161515151581526020016008820160059054906101000a900460ff161515151581525050915050919050565b60606000600160003373ffffffffffffffffffffffffffffffffffffffff1673ffffffffffffffffffffffffffffffffffffffff168152602001908152602001600020805480602002602001604051908101604052809291908181526020018280548015610c1557602002820191906000526020600020905b815481526020019060010190808311610c01575b505050505090506000815167ffffffffffffffff811115610c5f577f4e487b7100000000000000000000000000000000000000000000000000000000600052604160045260246000fd5b604051908082528060200260200182016040528015610c9857816020015b610c856127bd565b815260200190600190039081610c7d5790505b50905060005b8251811015610f7c576000838281518110610ce2577f4e487b7100000000000000000000000000000000000000000000000000000000600052603260045260246000fd5b602002602001015181548110610d21577f4e487b7100000000000000000000000000000000000000000000000000000000600052603260045260246000fd5b9060005260206000209060090201604051806101a0016040529081600082015481526020016001820160009054906101000a900473ffffffffffffffffffffffffffffffffffffffff1673ffffffffffffffffffffffffffffffffffffffff1673ffffffffffffffffffffffffffffffffffffffff1681526020016002820160009054906101000a900473ffffffffffffffffffffffffffffffffffffffff1673ffffffffffffffffffffffffffffffffffffffff1673ffffffffffffffffffffffffffffffffffffffff1681526020016003820154815260200160048201548152602001600582016040518060400160405290816000820160009054906101000a900473ffffffffffffffffffffffffffffffffffffffff1673ffffffffffffffffffffffffffffffffffffffff1673ffffffffffffffffffffffffffffffffffffffff1681526020016001820154815250508152602001600782015481526020016008820160009054906101000a900460ff161515151581526020016008820160019054906101000a900460ff161515151581526020016008820160029054906101000a900460ff161515151581526020016008820160039054906101000a900460ff161515151581526020016008820160049054906101000a900460ff161515151581526020016008820160059054906101000a900460ff161515151581525050828281518110610f5e577f4e487b7100000000000000000000000000000000000000000000000000000000600052603260045260246000fd5b60200260200101819052508080610f74906135a8565b915050610c9e565b50809250505090565b428111610fc7576040517f08c379a0000000000000000000000000000000000000000000000000000000008152600401610fbe90613175565b60405180910390fd5b8473ffffffffffffffffffffffffffffffffffffffff168673ffffffffffffffffffffffffffffffffffffffff161415611036576040517f08c379a000000000000000000000000000000000000000000000000000000000815260040161102d90613215565b60405180910390fd5b6000808054905090506000604051806101a001604052808381526020018973ffffffffffffffffffffffffffffffffffffffff1681526020018873ffffffffffffffffffffffffffffffffffffffff16815260200187815260200186815260200185815260200184815260200160001515815260200160001515815260200160001515815260200160001515815260200160001515815260200160001515815250905060008190806001815401808255809150506001900390600052602060002090600902016000909190919091506000820151816000015560208201518160010160006101000a81548173ffffffffffffffffffffffffffffffffffffffff021916908373ffffffffffffffffffffffffffffffffffffffff16021790555060408201518160020160006101000a81548173ffffffffffffffffffffffffffffffffffffffff021916908373ffffffffffffffffffffffffffffffffffffffff160217905550606082015181600301556080820151816004015560a08201518160050160008201518160000160006101000a81548173ffffffffffffffffffffffffffffffffffffffff021916908373ffffffffffffffffffffffffffffffffffffffff16021790555060208201518160010155505060c0820151816007015560e08201518160080160006101000a81548160ff0219169083151502179055506101008201518160080160016101000a81548160ff0219169083151502179055506101208201518160080160026101000a81548160ff0219169083151502179055506101408201518160080160036101000a81548160ff0219169083151502179055506101608201518160080160046101000a81548160ff0219169083151502179055506101808201518160080160056101000a81548160ff0219169083151502179055505050600160008973ffffffffffffffffffffffffffffffffffffffff1673ffffffffffffffffffffffffffffffffffffffff168152602001908152602001600020829080600181540180825580915050600190039060005260206000200160009091909190915055600160008873ffffffffffffffffffffffffffffffffffffffff1673ffffffffffffffffffffffffffffffffffffffff1681526020019081526020016000208290806001815401808255809150506001900390600052602060002001600090919091909150558673ffffffffffffffffffffffffffffffffffffffff168873ffffffffffffffffffffffffffffffffffffffff16837f527de1c5803abb3b06511d7f38041c9b73e558c7fc15c2003a7ea2cf68cec5b48989898960405161140e94939291906133ac565b60405180910390a45050505050505050565b806000805490508110611468576040517f08c379a000000000000000000000000000000000000000000000000000000000815260040161145f906132f5565b60405180910390fd5b81600081815481106114a3577f4e487b7100000000000000000000000000000000000000000000000000000000600052603260045260246000fd5b906000526020600020906009020160080160029054906101000a900460ff1615611502576040517f08c379a00000000000000000000000000000000000000000000000000000000081526004016114f9906132d5565b60405180910390fd5b826000818154811061153d577f4e487b7100000000000000000000000000000000000000000000000000000000600052603260045260246000fd5b906000526020600020906009020160080160039054906101000a900460ff161561159c576040517f08c379a0000000000000000000000000000000000000000000000000000000008152600401611593906132b5565b60405180910390fd5b833373ffffffffffffffffffffffffffffffffffffffff16600082815481106115ee577f4e487b7100000000000000000000000000000000000000000000000000000000600052603260045260246000fd5b906000526020600020906009020160020160009054906101000a900473ffffffffffffffffffffffffffffffffffffffff1673ffffffffffffffffffffffffffffffffffffffff1614611676576040517f08c379a000000000000000000000000000000000000000000000000000000000815260040161166d90613295565b60405180910390fd5b8442600082815481106116b2577f4e487b7100000000000000000000000000000000000000000000000000000000600052603260045260246000fd5b9060005260206000209060090201600701541015611705576040517f08c379a00000000000000000000000000000000000000000000000000000000081526004016116fc906131b5565b60405180910390fd5b6000808781548110611740577f4e487b7100000000000000000000000000000000000000000000000000000000600052603260045260246000fd5b906000526020600020906009020190508060080160019054906101000a900460ff16156117a2576040517f08c379a000000000000000000000000000000000000000000000000000000000815260040161179990613315565b60405180910390fd5b60008160050160000160009054906101000a900473ffffffffffffffffffffffffffffffffffffffff1690508073ffffffffffffffffffffffffffffffffffffffff1663e985e9c533306040518363ffffffff1660e01b8152600401611809929190613061565b60206040518083038186803b15801561182157600080fd5b505afa158015611835573d6000803e3d6000fd5b505050506040513d601f19601f8201168201806040525081019061185991906129f8565b611898576040517f08c379a000000000000000000000000000000000000000000000000000000000815260040161188f90613235565b60405180910390fd5b8073ffffffffffffffffffffffffffffffffffffffff1663e985e9c533306040518363ffffffff1660e01b81526004016118d3929190613061565b60206040518083038186803b1580156118eb57600080fd5b505afa1580156118ff573d6000803e3d6000fd5b505050506040513d601f19601f8201168201806040525081019061192391906129f8565b611962576040517f08c379a000000000000000000000000000000000000000000000000000000000815260040161195990613275565b60405180910390fd5b8073ffffffffffffffffffffffffffffffffffffffff166323b872dd333085600501600101546040518463ffffffff1660e01b81526004016119a6939291906130c1565b600060405180830381600087803b1580156119c057600080fd5b505af11580156119d4573d6000803e3d6000fd5b5050505060018260080160016101000a81548160ff0219169083151502179055508160080160009054906101000a900460ff168015611a2157508160080160019054906101000a900460ff165b15611a3057611a2f88612498565b5b3373ffffffffffffffffffffffffffffffffffffffff16887fc7ee502cc77e20d7aa49199f09117bd921bc4bc5f09fde994eacc85e4571184060405160405180910390a35050505050505050565b806000805490508110611ac6576040517f08c379a0000000000000000000000000000000000000000000000000000000008152600401611abd906132f5565b60405180910390fd5b8160008181548110611b01577f4e487b7100000000000000000000000000000000000000000000000000000000600052603260045260246000fd5b906000526020600020906009020160080160029054906101000a900460ff16611b5f576040517f08c379a0000000000000000000000000000000000000000000000000000000008152600401611b5690613355565b60405180910390fd5b8260008181548110611b9a577f4e487b7100000000000000000000000000000000000000000000000000000000600052603260045260246000fd5b906000526020600020906009020160080160039054906101000a900460ff1615611bf9576040517f08c379a0000000000000000000000000000000000000000000000000000000008152600401611bf0906132b5565b60405180910390fd5b833373ffffffffffffffffffffffffffffffffffffffff1660008281548110611c4b577f4e487b7100000000000000000000000000000000000000000000000000000000600052603260045260246000fd5b906000526020600020906009020160010160009054906101000a900473ffffffffffffffffffffffffffffffffffffffff1673ffffffffffffffffffffffffffffffffffffffff1614611cd3576040517f08c379a0000000000000000000000000000000000000000000000000000000008152600401611cca906131f5565b60405180910390fd5b6000808681548110611d0e577f4e487b7100000000000000000000000000000000000000000000000000000000600052603260045260246000fd5b906000526020600020906009020190508060070154421015611d65576040517f08c379a0000000000000000000000000000000000000000000000000000000008152600401611d5c906131d5565b60405180910390fd5b60008160050160000160009054906101000a900473ffffffffffffffffffffffffffffffffffffffff1690508073ffffffffffffffffffffffffffffffffffffffff166323b872dd308460010160009054906101000a900473ffffffffffffffffffffffffffffffffffffffff1685600501600101546040518463ffffffff1660e01b8152600401611df99392919061308a565b600060405180830381600087803b158015611e1357600080fd5b505af1158015611e27573d6000803e3d6000fd5b5050505060008260080160026101000a81548160ff02191690831515021790555060018260080160036101000a81548160ff02191690831515021790555060018260080160056101000a81548160ff021916908315150217905550867ffa2566d2a0191d4e94fe86ecddf448013cf426fbfda83d475391735e5c5cc8576000604051611eb3919061311a565b60405180910390a250505050505050565b806000805490508110611f0c576040517f08c379a0000000000000000000000000000000000000000000000000000000008152600401611f03906132f5565b60405180910390fd5b8160008181548110611f47577f4e487b7100000000000000000000000000000000000000000000000000000000600052603260045260246000fd5b906000526020600020906009020160080160029054906101000a900460ff16611fa5576040517f08c379a0000000000000000000000000000000000000000000000000000000008152600401611f9c90613355565b60405180910390fd5b8260008181548110611fe0577f4e487b7100000000000000000000000000000000000000000000000000000000600052603260045260246000fd5b906000526020600020906009020160080160039054906101000a900460ff161561203f576040517f08c379a0000000000000000000000000000000000000000000000000000000008152600401612036906132b5565b60405180910390fd5b833373ffffffffffffffffffffffffffffffffffffffff1660008281548110612091577f4e487b7100000000000000000000000000000000000000000000000000000000600052603260045260246000fd5b906000526020600020906009020160020160009054906101000a900473ffffffffffffffffffffffffffffffffffffffff1673ffffffffffffffffffffffffffffffffffffffff1614612119576040517f08c379a000000000000000000000000000000000000000000000000000000000815260040161211090613295565b60405180910390fd5b844260008281548110612155577f4e487b7100000000000000000000000000000000000000000000000000000000600052603260045260246000fd5b90600052602060002090600902016007015410156121a8576040517f08c379a000000000000000000000000000000000000000000000000000000000815260040161219f906131b5565b60405180910390fd5b60008087815481106121e3577f4e487b7100000000000000000000000000000000000000000000000000000000600052603260045260246000fd5b90600052602060002090600902019050600060c8826003015461220691906134b6565b8260040154836003015461221a9190613460565b6122249190613460565b9050803414612268576040517f08c379a000000000000000000000000000000000000000000000000000000000815260040161225f90613155565b60405180910390fd5b60008260010160009054906101000a900473ffffffffffffffffffffffffffffffffffffffff1673ffffffffffffffffffffffffffffffffffffffff166108fc839081150290604051600060405180830381858888f19350505050905080612305576040517f08c379a00000000000000000000000000000000000000000000000000000000081526004016122fc90613135565b60405180910390fd5b60008360050160000160009054906101000a900473ffffffffffffffffffffffffffffffffffffffff1690508073ffffffffffffffffffffffffffffffffffffffff166323b872dd308660020160009054906101000a900473ffffffffffffffffffffffffffffffffffffffff1687600501600101546040518463ffffffff1660e01b81526004016123999392919061308a565b600060405180830381600087803b1580156123b357600080fd5b505af11580156123c7573d6000803e3d6000fd5b5050505060008460080160026101000a81548160ff02191690831515021790555060018460080160036101000a81548160ff02191690831515021790555060018460080160046101000a81548160ff021916908315150217905550897ffa2566d2a0191d4e94fe86ecddf448013cf426fbfda83d475391735e5c5cc8576001604051612453919061311a565b60405180910390a250505050505050505050565b6001602052816000526040600020818154811061248357600080fd5b90600052602060002001600091509150505481565b8060008054905081106124e0576040517f08c379a00000000000000000000000000000000000000000000000000000000081526004016124d7906132f5565b60405180910390fd5b816000818154811061251b577f4e487b7100000000000000000000000000000000000000000000000000000000600052603260045260246000fd5b906000526020600020906009020160080160039054906101000a900460ff161561257a576040517f08c379a0000000000000000000000000000000000000000000000000000000008152600401612571906132b5565b60405180910390fd5b82600081815481106125b5577f4e487b7100000000000000000000000000000000000000000000000000000000600052603260045260246000fd5b906000526020600020906009020160080160029054906101000a900460ff1615612614576040517f08c379a000000000000000000000000000000000000000000000000000000000815260040161260b906132d5565b60405180910390fd5b600080858154811061264f577f4e487b7100000000000000000000000000000000000000000000000000000000600052603260045260246000fd5b906000526020600020906009020190508060080160009054906101000a900460ff16801561268b57508060080160019054906101000a900460ff165b6126ca576040517f08c379a00000000000000000000000000000000000000000000000000000000081526004016126c190613195565b60405180910390fd5b60008160020160009054906101000a900473ffffffffffffffffffffffffffffffffffffffff1673ffffffffffffffffffffffffffffffffffffffff166108fc83600301549081150290604051600060405180830381858888f1935050505090508061276b576040517f08c379a000000000000000000000000000000000000000000000000000000000815260040161276290613135565b60405180910390fd5b60018260080160026101000a81548160ff021916908315150217905550857f77a86aa96233b4ed87b72b998e9b9e8b207ca1e4070b49c0622f7e0444fd6cb860405160405180910390a2505050505050565b604051806101a0016040528060008152602001600073ffffffffffffffffffffffffffffffffffffffff168152602001600073ffffffffffffffffffffffffffffffffffffffff1681526020016000815260200160008152602001612820612863565b8152602001600081526020016000151581526020016000151581526020016000151581526020016000151581526020016000151581526020016000151581525090565b6040518060400160405280600073ffffffffffffffffffffffffffffffffffffffff168152602001600081525090565b6000813590506128a281613ac7565b92915050565b6000813590506128b781613ade565b92915050565b6000815190506128cc81613af5565b92915050565b6000604082840312156128e457600080fd5b6128ee60406133f1565b905060006128fe84828501612893565b60008301525060206129128482850161291e565b60208301525092915050565b60008135905061292d81613b0c565b92915050565b60008060008060008060e0878903121561294c57600080fd5b600061295a89828a016128a8565b965050602061296b89828a016128a8565b955050604061297c89828a0161291e565b945050606061298d89828a0161291e565b935050608061299e89828a016128d2565b92505060c06129af89828a0161291e565b9150509295509295509295565b600080604083850312156129cf57600080fd5b60006129dd85828601612893565b92505060206129ee8582860161291e565b9150509250929050565b600060208284031215612a0a57600080fd5b6000612a18848285016128bd565b91505092915050565b600060208284031215612a3357600080fd5b6000612a418482850161291e565b91505092915050565b60008060408385031215612a5d57600080fd5b6000612a6b8582860161291e565b9250506020612a7c8582860161291e565b9150509250929050565b6000612a928383612dcd565b6101c08301905092915050565b612aa881613541565b82525050565b612ab7816134f9565b82525050565b612ac6816134e7565b82525050565b612ad5816134e7565b82525050565b6000612ae682613426565b612af0818561343e565b9350612afb83613416565b8060005b83811015612b2c578151612b138882612a86565b9750612b1e83613431565b925050600181019050612aff565b5085935050505092915050565b612b428161350b565b82525050565b612b518161350b565b82525050565b6000612b6460258361344f565b9150612b6f8261368f565b604082019050919050565b6000612b8760288361344f565b9150612b92826136de565b604082019050919050565b6000612baa601f8361344f565b9150612bb58261372d565b602082019050919050565b6000612bcd60138361344f565b9150612bd882613756565b602082019050919050565b6000612bf0601f8361344f565b9150612bfb8261377f565b602082019050919050565b6000612c1360148361344f565b9150612c1e826137a8565b602082019050919050565b6000612c3660238361344f565b9150612c41826137d1565b604082019050919050565b6000612c59602b8361344f565b9150612c6482613820565b604082019050919050565b6000612c7c60278361344f565b9150612c878261386f565b604082019050919050565b6000612c9f602f8361344f565b9150612caa826138be565b604082019050919050565b6000612cc260298361344f565b9150612ccd8261390d565b604082019050919050565b6000612ce560258361344f565b9150612cf08261395c565b604082019050919050565b6000612d08601e8361344f565b9150612d13826139ab565b602082019050919050565b6000612d2b601b8361344f565b9150612d36826139d4565b602082019050919050565b6000612d4e60188361344f565b9150612d59826139fd565b602082019050919050565b6000612d71601f8361344f565b9150612d7c82613a26565b602082019050919050565b6000612d9460308361344f565b9150612d9f82613a4f565b604082019050919050565b6000612db760178361344f565b9150612dc282613a9e565b602082019050919050565b6101c082016000820151612de46000850182613043565b506020820151612df76020850182612aae565b506040820151612e0a6040850182612aae565b506060820151612e1d6060850182613043565b506080820151612e306080850182613043565b5060a0820151612e4360a0850182612fe5565b5060c0820151612e5660e0850182613043565b5060e0820151612e6a610100850182612b39565b50610100820151612e7f610120850182612b39565b50610120820151612e94610140850182612b39565b50610140820151612ea9610160850182612b39565b50610160820151612ebe610180850182612b39565b50610180820151612ed36101a0850182612b39565b50505050565b6101c082016000820151612ef06000850182613043565b506020820151612f036020850182612aae565b506040820151612f166040850182612aae565b506060820151612f296060850182613043565b506080820151612f3c6080850182613043565b5060a0820151612f4f60a0850182612fe5565b5060c0820151612f6260e0850182613043565b5060e0820151612f76610100850182612b39565b50610100820151612f8b610120850182612b39565b50610120820151612fa0610140850182612b39565b50610140820151612fb5610160850182612b39565b50610160820151612fca610180850182612b39565b50610180820151612fdf6101a0850182612b39565b50505050565b604082016000820151612ffb6000850182612abd565b50602082015161300e6020850182613043565b50505050565b60408201600082015161302a6000850182612abd565b50602082015161303d6020850182613043565b50505050565b61304c81613537565b82525050565b61305b81613537565b82525050565b60006040820190506130766000830185612acc565b6130836020830184612acc565b9392505050565b600060608201905061309f6000830186612acc565b6130ac6020830185612a9f565b6130b96040830184613052565b949350505050565b60006060820190506130d66000830186612acc565b6130e36020830185612acc565b6130f06040830184613052565b949350505050565b600060208201905081810360008301526131128184612adb565b905092915050565b600060208201905061312f6000830184612b48565b92915050565b6000602082019050818103600083015261314e81612b57565b9050919050565b6000602082019050818103600083015261316e81612b7a565b9050919050565b6000602082019050818103600083015261318e81612b9d565b9050919050565b600060208201905081810360008301526131ae81612bc0565b9050919050565b600060208201905081810360008301526131ce81612be3565b9050919050565b600060208201905081810360008301526131ee81612c06565b9050919050565b6000602082019050818103600083015261320e81612c29565b9050919050565b6000602082019050818103600083015261322e81612c4c565b9050919050565b6000602082019050818103600083015261324e81612c6f565b9050919050565b6000602082019050818103600083015261326e81612c92565b9050919050565b6000602082019050818103600083015261328e81612cb5565b9050919050565b600060208201905081810360008301526132ae81612cd8565b9050919050565b600060208201905081810360008301526132ce81612cfb565b9050919050565b600060208201905081810360008301526132ee81612d1e565b9050919050565b6000602082019050818103600083015261330e81612d41565b9050919050565b6000602082019050818103600083015261332e81612d64565b9050919050565b6000602082019050818103600083015261334e81612d87565b9050919050565b6000602082019050818103600083015261336e81612daa565b9050919050565b60006101c08201905061338b6000830184612ed9565b92915050565b60006020820190506133a66000830184613052565b92915050565b600060a0820190506133c16000830187613052565b6133ce6020830186613052565b6133db6040830185613014565b6133e86080830184613052565b95945050505050565b60006133fb61340c565b90506134078282613577565b919050565b6000604051905090565b6000819050602082019050919050565b600081519050919050565b6000602082019050919050565b600082825260208201905092915050565b600082825260208201905092915050565b600061346b82613537565b915061347683613537565b9250827fffffffffffffffffffffffffffffffffffffffffffffffffffffffffffffffff038211156134ab576134aa6135f1565b5b828201905092915050565b60006134c182613537565b91506134cc83613537565b9250826134dc576134db613620565b5b828204905092915050565b60006134f282613517565b9050919050565b600061350482613517565b9050919050565b60008115159050919050565b600073ffffffffffffffffffffffffffffffffffffffff82169050919050565b6000819050919050565b600061354c82613553565b9050919050565b600061355e82613565565b9050919050565b600061357082613517565b9050919050565b6135808261367e565b810181811067ffffffffffffffff8211171561359f5761359e61364f565b5b80604052505050565b60006135b382613537565b91507fffffffffffffffffffffffffffffffffffffffffffffffffffffffffffffffff8214156135e6576135e56135f1565b5b600182019050919050565b7f4e487b7100000000000000000000000000000000000000000000000000000000600052601160045260246000fd5b7f4e487b7100000000000000000000000000000000000000000000000000000000600052601260045260246000fd5b7f4e487b7100000000000000000000000000000000000000000000000000000000600052604160045260246000fd5b6000601f19601f8301169050919050565b7f536f6d657468696e672077656e742077726f6e6720776974682074686520706160008201527f796d656e74000000000000000000000000000000000000000000000000000000602082015250565b7f506c6561736520706179206261636b2074686520657861637420616d6f756e7460008201527f20796f75206f7765000000000000000000000000000000000000000000000000602082015250565b7f446561646c696e652063616e206e6f7420626520696e20746865207061737400600082015250565b7f4c6f616e20697320756e636f6e6669726d656400000000000000000000000000600082015250565b7f54686973206c6f616e7320646561646c696e6520697320657863656564656400600082015250565b7f446561646c696e65206e6f742072656163686564000000000000000000000000600082015250565b7f596f7520617265206e6f7420746865206c656e646572206f662074686973206c60008201527f6f616e0000000000000000000000000000000000000000000000000000000000602082015250565b7f546865206c656e64657220616e6420626f72726f7765722063616e206e6f742060008201527f6265207468652073616d65000000000000000000000000000000000000000000602082015250565b7f546f6b656e206973206e6f7420617070726f76656420666f722074686973206360008201527f6f6e747261637400000000000000000000000000000000000000000000000000602082015250565b7f4e657720646561646c696e65206e6565647320746f206265206166746572206360008201527f757272656e7420646561646c696e650000000000000000000000000000000000602082015250565b7f506c6561736520617070726f7665207468697320746f6b656e20746f2074686560008201527f20436f6e74726163740000000000000000000000000000000000000000000000602082015250565b7f596f7520617265206e6f742074686520626f72726f776572206f66207468697360008201527f206c6f616e000000000000000000000000000000000000000000000000000000602082015250565b7f54686973206c6f616e2077617320616c72656164792065786563757465640000600082015250565b7f54686973206c6f616e20697320616c7265616479206163746976650000000000600082015250565b7f54686973206c6f616e20646f6573206e6f742065786973740000000000000000600082015250565b7f596f7520616c726561647920636f6e6669726d65642074686973206c6f616e00600082015250565b7f506c656173652073656e642074686520616d6f756e7420796f7520616772656560008201527f6420746f206c6f616e696e67206f757400000000000000000000000000000000602082015250565b7f54686973206c6f616e206973206e6f7420616374697665000000000000000000600082015250565b613ad0816134e7565b8114613adb57600080fd5b50565b613ae7816134f9565b8114613af257600080fd5b50565b613afe8161350b565b8114613b0957600080fd5b50565b613b1581613537565b8114613b2057600080fd5b5056fea264697066735822122069e658bb0b4ac02db64627c6db9817bc4052af8a96e0a68835f0a08558187bd164736f6c63430008040033",
  "linkReferences": {},
  "deployedLinkReferences": {}
}