{
  "_format": "hh-sol-artifact-1",
  "contractName": "LoanFactory",
  "sourceName": "contracts/LoanFactory.sol",
  "abi": [
    {
      "anonymous": false,
      "inputs": [
        {
          "indexed": true,
          "internalType": "uint256",
          "name": "id",
          "type": "uint256"
        }
      ],
      "name": "ActivateLoan",
      "type": "event"
    },
    {
      "anonymous": false,
      "inputs": [
        {
          "indexed": true,
          "internalType": "uint256",
          "name": "id",
          "type": "uint256"
        },
        {
          "indexed": true,
          "internalType": "address",
          "name": "borrower",
          "type": "address"
        }
      ],
      "name": "ConfirmBorrower",
      "type": "event"
    },
    {
      "anonymous": false,
      "inputs": [
        {
          "indexed": true,
          "internalType": "uint256",
          "name": "id",
          "type": "uint256"
        },
        {
          "indexed": true,
          "internalType": "address",
          "name": "lender",
          "type": "address"
        }
      ],
      "name": "ConfirmLender",
      "type": "event"
    },
    {
      "anonymous": false,
      "inputs": [
        {
          "indexed": true,
          "internalType": "uint256",
          "name": "id",
          "type": "uint256"
        },
        {
          "indexed": false,
          "internalType": "bool",
          "name": "paidBack",
          "type": "bool"
        }
      ],
      "name": "ExecuteLoan",
      "type": "event"
    },
    {
      "anonymous": false,
      "inputs": [
        {
          "indexed": true,
          "internalType": "uint256",
          "name": "id",
          "type": "uint256"
        },
        {
          "indexed": true,
          "internalType": "address",
          "name": "revoker",
          "type": "address"
        }
      ],
      "name": "RevokeConfirmation",
      "type": "event"
    },
    {
      "anonymous": false,
      "inputs": [
        {
          "indexed": true,
          "internalType": "uint256",
          "name": "id",
          "type": "uint256"
        },
        {
          "indexed": true,
          "internalType": "address",
          "name": "lender",
          "type": "address"
        },
        {
          "indexed": true,
          "internalType": "address",
          "name": "borrower",
          "type": "address"
        },
        {
          "indexed": false,
          "internalType": "uint256",
          "name": "amount",
          "type": "uint256"
        },
        {
          "indexed": false,
          "internalType": "uint256",
          "name": "interest",
          "type": "uint256"
        },
        {
          "components": [
            {
              "internalType": "address",
              "name": "contractAddress",
              "type": "address"
            },
            {
              "internalType": "uint256",
              "name": "tokenId",
              "type": "uint256"
            }
          ],
          "indexed": false,
          "internalType": "struct LoanFactory.Token",
          "name": "collateral",
          "type": "tuple"
        },
        {
          "indexed": false,
          "internalType": "uint256",
          "name": "deadline",
          "type": "uint256"
        }
      ],
      "name": "SubmitLoan",
      "type": "event"
    },
    {
      "inputs": [
        {
          "internalType": "uint256",
          "name": "_id",
          "type": "uint256"
        }
      ],
      "name": "claimCollateral",
      "outputs": [],
      "stateMutability": "nonpayable",
      "type": "function"
    },
    {
      "inputs": [
        {
          "internalType": "uint256",
          "name": "_id",
          "type": "uint256"
        }
      ],
      "name": "confirmBorrower",
      "outputs": [],
      "stateMutability": "nonpayable",
      "type": "function"
    },
    {
      "inputs": [
        {
          "internalType": "uint256",
          "name": "_id",
          "type": "uint256"
        }
      ],
      "name": "confirmLender",
      "outputs": [],
      "stateMutability": "payable",
      "type": "function"
    },
    {
      "inputs": [
        {
          "internalType": "uint256",
          "name": "_id",
          "type": "uint256"
        },
        {
          "internalType": "uint256",
          "name": "_newDeadline",
          "type": "uint256"
        }
      ],
      "name": "extendDeadline",
      "outputs": [],
      "stateMutability": "nonpayable",
      "type": "function"
    },
    {
      "inputs": [
        {
          "internalType": "uint256",
          "name": "_id",
          "type": "uint256"
        }
      ],
      "name": "getLoan",
      "outputs": [
        {
          "components": [
            {
              "internalType": "address payable",
              "name": "lender",
              "type": "address"
            },
            {
              "internalType": "address",
              "name": "borrower",
              "type": "address"
            },
            {
              "internalType": "uint256",
              "name": "amount",
              "type": "uint256"
            },
            {
              "internalType": "uint256",
              "name": "interest",
              "type": "uint256"
            },
            {
              "components": [
                {
                  "internalType": "address",
                  "name": "contractAddress",
                  "type": "address"
                },
                {
                  "internalType": "uint256",
                  "name": "tokenId",
                  "type": "uint256"
                }
              ],
              "internalType": "struct LoanFactory.Token",
              "name": "collateral",
              "type": "tuple"
            },
            {
              "internalType": "uint256",
              "name": "deadline",
              "type": "uint256"
            },
            {
              "internalType": "bool",
              "name": "lenderConfirmed",
              "type": "bool"
            },
            {
              "internalType": "bool",
              "name": "borrowerConfirmed",
              "type": "bool"
            },
            {
              "internalType": "bool",
              "name": "active",
              "type": "bool"
            },
            {
              "internalType": "bool",
              "name": "executed",
              "type": "bool"
            }
          ],
          "internalType": "struct LoanFactory.Loan",
          "name": "",
          "type": "tuple"
        }
      ],
      "stateMutability": "view",
      "type": "function"
    },
    {
      "inputs": [],
      "name": "getSenderLoans",
      "outputs": [
        {
          "components": [
            {
              "internalType": "address payable",
              "name": "lender",
              "type": "address"
            },
            {
              "internalType": "address",
              "name": "borrower",
              "type": "address"
            },
            {
              "internalType": "uint256",
              "name": "amount",
              "type": "uint256"
            },
            {
              "internalType": "uint256",
              "name": "interest",
              "type": "uint256"
            },
            {
              "components": [
                {
                  "internalType": "address",
                  "name": "contractAddress",
                  "type": "address"
                },
                {
                  "internalType": "uint256",
                  "name": "tokenId",
                  "type": "uint256"
                }
              ],
              "internalType": "struct LoanFactory.Token",
              "name": "collateral",
              "type": "tuple"
            },
            {
              "internalType": "uint256",
              "name": "deadline",
              "type": "uint256"
            },
            {
              "internalType": "bool",
              "name": "lenderConfirmed",
              "type": "bool"
            },
            {
              "internalType": "bool",
              "name": "borrowerConfirmed",
              "type": "bool"
            },
            {
              "internalType": "bool",
              "name": "active",
              "type": "bool"
            },
            {
              "internalType": "bool",
              "name": "executed",
              "type": "bool"
            }
          ],
          "internalType": "struct LoanFactory.Loan[]",
          "name": "",
          "type": "tuple[]"
        }
      ],
      "stateMutability": "view",
      "type": "function"
    },
    {
      "inputs": [
        {
          "internalType": "uint256",
          "name": "_id",
          "type": "uint256"
        }
      ],
      "name": "paybackLoan",
      "outputs": [],
      "stateMutability": "payable",
      "type": "function"
    },
    {
      "inputs": [
        {
          "internalType": "address payable",
          "name": "_lender",
          "type": "address"
        },
        {
          "internalType": "address",
          "name": "_borrower",
          "type": "address"
        },
        {
          "internalType": "uint256",
          "name": "_amount",
          "type": "uint256"
        },
        {
          "internalType": "uint256",
          "name": "_interest",
          "type": "uint256"
        },
        {
          "components": [
            {
              "internalType": "address",
              "name": "contractAddress",
              "type": "address"
            },
            {
              "internalType": "uint256",
              "name": "tokenId",
              "type": "uint256"
            }
          ],
          "internalType": "struct LoanFactory.Token",
          "name": "_collateral",
          "type": "tuple"
        },
        {
          "internalType": "uint256",
          "name": "_deadline",
          "type": "uint256"
        }
      ],
      "name": "submitLoan",
      "outputs": [
        {
          "internalType": "uint256",
          "name": "",
          "type": "uint256"
        }
      ],
      "stateMutability": "nonpayable",
      "type": "function"
    },
    {
      "inputs": [
        {
          "internalType": "address",
          "name": "",
          "type": "address"
        },
        {
          "internalType": "uint256",
          "name": "",
          "type": "uint256"
        }
      ],
      "name": "userLoans",
      "outputs": [
        {
          "internalType": "uint256",
          "name": "",
          "type": "uint256"
        }
      ],
      "stateMutability": "view",
      "type": "function"
    }
  ],
  "bytecode": "0x608060405234801561001057600080fd5b50613575806100206000396000f3fe6080604052600436106100865760003560e01c8063afa34c8511610059578063afa34c8514610138578063c1d80d0b14610175578063c49785b41461019e578063d16ef22a146101c7578063d8bad5bd146101e357610086565b80632d1fdef61461008b5780633e5b5035146100b4578063504006ca146100d057806371951a711461010d575b600080fd5b34801561009757600080fd5b506100b260048036038101906100ad91906126d4565b610220565b005b6100ce60048036038101906100c991906126ab565b61047e565b005b3480156100dc57600080fd5b506100f760048036038101906100f291906126ab565b6108eb565b6040516101049190612eb8565b60405180910390f35b34801561011957600080fd5b50610122610b41565b60405161012f9190612c9b565b60405180910390f35b34801561014457600080fd5b5061015f600480360381019061015a91906125bd565b610efe565b60405161016c9190612ed4565b60405180910390f35b34801561018157600080fd5b5061019c600480360381019061019791906126ab565b61128a565b005b3480156101aa57600080fd5b506101c560048036038101906101c091906126ab565b61181e565b005b6101e160048036038101906101dc91906126ab565b611c47565b005b3480156101ef57600080fd5b5061020a60048036038101906102059190612646565b6121ac565b6040516102179190612ed4565b60405180910390f35b816000805490508110610268576040517f08c379a000000000000000000000000000000000000000000000000000000000815260040161025f90612e38565b60405180910390fd5b82600081815481106102a3577f4e487b7100000000000000000000000000000000000000000000000000000000600052603260045260246000fd5b906000526020600020906008020160070160039054906101000a900460ff1615610302576040517f08c379a00000000000000000000000000000000000000000000000000000000081526004016102f990612df8565b60405180910390fd5b833373ffffffffffffffffffffffffffffffffffffffff1660008281548110610354577f4e487b7100000000000000000000000000000000000000000000000000000000600052603260045260246000fd5b906000526020600020906008020160000160009054906101000a900473ffffffffffffffffffffffffffffffffffffffff1673ffffffffffffffffffffffffffffffffffffffff16146103dc576040517f08c379a00000000000000000000000000000000000000000000000000000000081526004016103d390612d78565b60405180910390fd5b6000808681548110610417577f4e487b7100000000000000000000000000000000000000000000000000000000600052603260045260246000fd5b906000526020600020906008020190508060060154851161046d576040517f08c379a000000000000000000000000000000000000000000000000000000000815260040161046490612db8565b60405180910390fd5b848160060181905550505050505050565b8060008054905081106104c6576040517f08c379a00000000000000000000000000000000000000000000000000000000081526004016104bd90612e38565b60405180910390fd5b8160008181548110610501577f4e487b7100000000000000000000000000000000000000000000000000000000600052603260045260246000fd5b906000526020600020906008020160070160029054906101000a900460ff1615610560576040517f08c379a000000000000000000000000000000000000000000000000000000000815260040161055790612e18565b60405180910390fd5b826000818154811061059b577f4e487b7100000000000000000000000000000000000000000000000000000000600052603260045260246000fd5b906000526020600020906008020160070160039054906101000a900460ff16156105fa576040517f08c379a00000000000000000000000000000000000000000000000000000000081526004016105f190612df8565b60405180910390fd5b833373ffffffffffffffffffffffffffffffffffffffff166000828154811061064c577f4e487b7100000000000000000000000000000000000000000000000000000000600052603260045260246000fd5b906000526020600020906008020160000160009054906101000a900473ffffffffffffffffffffffffffffffffffffffff1673ffffffffffffffffffffffffffffffffffffffff16146106d4576040517f08c379a00000000000000000000000000000000000000000000000000000000081526004016106cb90612d78565b60405180910390fd5b844260008281548110610710577f4e487b7100000000000000000000000000000000000000000000000000000000600052603260045260246000fd5b9060005260206000209060080201600601541015610763576040517f08c379a000000000000000000000000000000000000000000000000000000000815260040161075a90612d38565b60405180910390fd5b600080878154811061079e577f4e487b7100000000000000000000000000000000000000000000000000000000600052603260045260246000fd5b906000526020600020906008020190508060070160009054906101000a900460ff1615610800576040517f08c379a00000000000000000000000000000000000000000000000000000000081526004016107f790612e58565b60405180910390fd5b80600201543414610846576040517f08c379a000000000000000000000000000000000000000000000000000000000815260040161083d90612e78565b60405180910390fd5b60018160070160006101000a81548160ff0219169083151502179055508060070160009054906101000a900460ff16801561088f57508060070160019054906101000a900460ff165b1561089e5761089d876121dd565b5b3373ffffffffffffffffffffffffffffffffffffffff16877f7438a0816a45d9fa60821e810f079b4a9d757940f6868a5acfcfe2b2d7f348b260405160405180910390a350505050505050565b6108f3612460565b81600080549050811061093b576040517f08c379a000000000000000000000000000000000000000000000000000000000815260040161093290612e38565b60405180910390fd5b60008381548110610975577f4e487b7100000000000000000000000000000000000000000000000000000000600052603260045260246000fd5b9060005260206000209060080201604051806101400160405290816000820160009054906101000a900473ffffffffffffffffffffffffffffffffffffffff1673ffffffffffffffffffffffffffffffffffffffff1673ffffffffffffffffffffffffffffffffffffffff1681526020016001820160009054906101000a900473ffffffffffffffffffffffffffffffffffffffff1673ffffffffffffffffffffffffffffffffffffffff1673ffffffffffffffffffffffffffffffffffffffff1681526020016002820154815260200160038201548152602001600482016040518060400160405290816000820160009054906101000a900473ffffffffffffffffffffffffffffffffffffffff1673ffffffffffffffffffffffffffffffffffffffff1673ffffffffffffffffffffffffffffffffffffffff1681526020016001820154815250508152602001600682015481526020016007820160009054906101000a900460ff161515151581526020016007820160019054906101000a900460ff161515151581526020016007820160029054906101000a900460ff161515151581526020016007820160039054906101000a900460ff161515151581525050915050919050565b60606000600160003373ffffffffffffffffffffffffffffffffffffffff1673ffffffffffffffffffffffffffffffffffffffff168152602001908152602001600020805480602002602001604051908101604052809291908181526020018280548015610bce57602002820191906000526020600020905b815481526020019060010190808311610bba575b505050505090506000815167ffffffffffffffff811115610c18577f4e487b7100000000000000000000000000000000000000000000000000000000600052604160045260246000fd5b604051908082528060200260200182016040528015610c5157816020015b610c3e612460565b815260200190600190039081610c365790505b50905060005b8251811015610ef5576000838281518110610c9b577f4e487b7100000000000000000000000000000000000000000000000000000000600052603260045260246000fd5b602002602001015181548110610cda577f4e487b7100000000000000000000000000000000000000000000000000000000600052603260045260246000fd5b9060005260206000209060080201604051806101400160405290816000820160009054906101000a900473ffffffffffffffffffffffffffffffffffffffff1673ffffffffffffffffffffffffffffffffffffffff1673ffffffffffffffffffffffffffffffffffffffff1681526020016001820160009054906101000a900473ffffffffffffffffffffffffffffffffffffffff1673ffffffffffffffffffffffffffffffffffffffff1673ffffffffffffffffffffffffffffffffffffffff1681526020016002820154815260200160038201548152602001600482016040518060400160405290816000820160009054906101000a900473ffffffffffffffffffffffffffffffffffffffff1673ffffffffffffffffffffffffffffffffffffffff1673ffffffffffffffffffffffffffffffffffffffff1681526020016001820154815250508152602001600682015481526020016007820160009054906101000a900460ff161515151581526020016007820160019054906101000a900460ff161515151581526020016007820160029054906101000a900460ff161515151581526020016007820160039054906101000a900460ff161515151581525050828281518110610ed7577f4e487b7100000000000000000000000000000000000000000000000000000000600052603260045260246000fd5b60200260200101819052508080610eed906130ba565b915050610c57565b50809250505090565b600080600080549050905060006040518061014001604052808a73ffffffffffffffffffffffffffffffffffffffff1681526020018973ffffffffffffffffffffffffffffffffffffffff168152602001888152602001878152602001868152602001858152602001600015158152602001600015158152602001600015158152602001600015158152509050600081908060018154018082558091505060019003906000526020600020906008020160009091909190915060008201518160000160006101000a81548173ffffffffffffffffffffffffffffffffffffffff021916908373ffffffffffffffffffffffffffffffffffffffff16021790555060208201518160010160006101000a81548173ffffffffffffffffffffffffffffffffffffffff021916908373ffffffffffffffffffffffffffffffffffffffff160217905550604082015181600201556060820151816003015560808201518160040160008201518160000160006101000a81548173ffffffffffffffffffffffffffffffffffffffff021916908373ffffffffffffffffffffffffffffffffffffffff16021790555060208201518160010155505060a0820151816006015560c08201518160070160006101000a81548160ff02191690831515021790555060e08201518160070160016101000a81548160ff0219169083151502179055506101008201518160070160026101000a81548160ff0219169083151502179055506101208201518160070160036101000a81548160ff0219169083151502179055505050600160008a73ffffffffffffffffffffffffffffffffffffffff1673ffffffffffffffffffffffffffffffffffffffff168152602001908152602001600020829080600181540180825580915050600190039060005260206000200160009091909190915055600160008973ffffffffffffffffffffffffffffffffffffffff1673ffffffffffffffffffffffffffffffffffffffff1681526020019081526020016000208290806001815401808255809150506001900390600052602060002001600090919091909150558773ffffffffffffffffffffffffffffffffffffffff168973ffffffffffffffffffffffffffffffffffffffff16837f527de1c5803abb3b06511d7f38041c9b73e558c7fc15c2003a7ea2cf68cec5b48a8a8a8a6040516112739493929190612eef565b60405180910390a481925050509695505050505050565b8060008054905081106112d2576040517f08c379a00000000000000000000000000000000000000000000000000000000081526004016112c990612e38565b60405180910390fd5b816000818154811061130d577f4e487b7100000000000000000000000000000000000000000000000000000000600052603260045260246000fd5b906000526020600020906008020160070160029054906101000a900460ff161561136c576040517f08c379a000000000000000000000000000000000000000000000000000000000815260040161136390612e18565b60405180910390fd5b82600081815481106113a7577f4e487b7100000000000000000000000000000000000000000000000000000000600052603260045260246000fd5b906000526020600020906008020160070160039054906101000a900460ff1615611406576040517f08c379a00000000000000000000000000000000000000000000000000000000081526004016113fd90612df8565b60405180910390fd5b833373ffffffffffffffffffffffffffffffffffffffff1660008281548110611458577f4e487b7100000000000000000000000000000000000000000000000000000000600052603260045260246000fd5b906000526020600020906008020160010160009054906101000a900473ffffffffffffffffffffffffffffffffffffffff1673ffffffffffffffffffffffffffffffffffffffff16146114e0576040517f08c379a00000000000000000000000000000000000000000000000000000000081526004016114d790612dd8565b60405180910390fd5b84426000828154811061151c577f4e487b7100000000000000000000000000000000000000000000000000000000600052603260045260246000fd5b906000526020600020906008020160060154101561156f576040517f08c379a000000000000000000000000000000000000000000000000000000000815260040161156690612d38565b60405180910390fd5b60008087815481106115aa577f4e487b7100000000000000000000000000000000000000000000000000000000600052603260045260246000fd5b906000526020600020906008020190508060070160019054906101000a900460ff161561160c576040517f08c379a000000000000000000000000000000000000000000000000000000000815260040161160390612e58565b60405180910390fd5b60008160040160000160009054906101000a900473ffffffffffffffffffffffffffffffffffffffff1690508073ffffffffffffffffffffffffffffffffffffffff1663e985e9c533306040518363ffffffff1660e01b8152600401611673929190612c04565b60206040518083038186803b15801561168b57600080fd5b505afa15801561169f573d6000803e3d6000fd5b505050506040513d601f19601f820116820180604052508101906116c39190612682565b611702576040517f08c379a00000000000000000000000000000000000000000000000000000000081526004016116f990612d98565b60405180910390fd5b8073ffffffffffffffffffffffffffffffffffffffff166323b872dd333085600401600101546040518463ffffffff1660e01b815260040161174693929190612c64565b600060405180830381600087803b15801561176057600080fd5b505af1158015611774573d6000803e3d6000fd5b5050505060018260070160016101000a81548160ff0219169083151502179055508160070160009054906101000a900460ff1680156117c157508160070160019054906101000a900460ff165b156117d0576117cf886121dd565b5b3373ffffffffffffffffffffffffffffffffffffffff16887fc7ee502cc77e20d7aa49199f09117bd921bc4bc5f09fde994eacc85e4571184060405160405180910390a35050505050505050565b806000805490508110611866576040517f08c379a000000000000000000000000000000000000000000000000000000000815260040161185d90612e38565b60405180910390fd5b81600081815481106118a1577f4e487b7100000000000000000000000000000000000000000000000000000000600052603260045260246000fd5b906000526020600020906008020160070160029054906101000a900460ff166118ff576040517f08c379a00000000000000000000000000000000000000000000000000000000081526004016118f690612e98565b60405180910390fd5b826000818154811061193a577f4e487b7100000000000000000000000000000000000000000000000000000000600052603260045260246000fd5b906000526020600020906008020160070160039054906101000a900460ff1615611999576040517f08c379a000000000000000000000000000000000000000000000000000000000815260040161199090612df8565b60405180910390fd5b833373ffffffffffffffffffffffffffffffffffffffff16600082815481106119eb577f4e487b7100000000000000000000000000000000000000000000000000000000600052603260045260246000fd5b906000526020600020906008020160000160009054906101000a900473ffffffffffffffffffffffffffffffffffffffff1673ffffffffffffffffffffffffffffffffffffffff1614611a73576040517f08c379a0000000000000000000000000000000000000000000000000000000008152600401611a6a90612d78565b60405180910390fd5b6000808681548110611aae577f4e487b7100000000000000000000000000000000000000000000000000000000600052603260045260246000fd5b906000526020600020906008020190508060060154421015611b05576040517f08c379a0000000000000000000000000000000000000000000000000000000008152600401611afc90612d58565b60405180910390fd5b60008160040160000160009054906101000a900473ffffffffffffffffffffffffffffffffffffffff1690508073ffffffffffffffffffffffffffffffffffffffff166323b872dd308460000160009054906101000a900473ffffffffffffffffffffffffffffffffffffffff1685600401600101546040518463ffffffff1660e01b8152600401611b9993929190612c2d565b600060405180830381600087803b158015611bb357600080fd5b505af1158015611bc7573d6000803e3d6000fd5b5050505060008260070160026101000a81548160ff02191690831515021790555060018260070160036101000a81548160ff021916908315150217905550867ffa2566d2a0191d4e94fe86ecddf448013cf426fbfda83d475391735e5c5cc8576000604051611c369190612cbd565b60405180910390a250505050505050565b806000805490508110611c8f576040517f08c379a0000000000000000000000000000000000000000000000000000000008152600401611c8690612e38565b60405180910390fd5b8160008181548110611cca577f4e487b7100000000000000000000000000000000000000000000000000000000600052603260045260246000fd5b906000526020600020906008020160070160029054906101000a900460ff16611d28576040517f08c379a0000000000000000000000000000000000000000000000000000000008152600401611d1f90612e98565b60405180910390fd5b8260008181548110611d63577f4e487b7100000000000000000000000000000000000000000000000000000000600052603260045260246000fd5b906000526020600020906008020160070160039054906101000a900460ff1615611dc2576040517f08c379a0000000000000000000000000000000000000000000000000000000008152600401611db990612df8565b60405180910390fd5b833373ffffffffffffffffffffffffffffffffffffffff1660008281548110611e14577f4e487b7100000000000000000000000000000000000000000000000000000000600052603260045260246000fd5b906000526020600020906008020160010160009054906101000a900473ffffffffffffffffffffffffffffffffffffffff1673ffffffffffffffffffffffffffffffffffffffff1614611e9c576040517f08c379a0000000000000000000000000000000000000000000000000000000008152600401611e9390612dd8565b60405180910390fd5b844260008281548110611ed8577f4e487b7100000000000000000000000000000000000000000000000000000000600052603260045260246000fd5b9060005260206000209060080201600601541015611f2b576040517f08c379a0000000000000000000000000000000000000000000000000000000008152600401611f2290612d38565b60405180910390fd5b6000808781548110611f66577f4e487b7100000000000000000000000000000000000000000000000000000000600052603260045260246000fd5b9060005260206000209060080201905080600301548160020154611f8a9190612fa3565b3414611fcb576040517f08c379a0000000000000000000000000000000000000000000000000000000008152600401611fc290612cf8565b60405180910390fd5b60008160000160009054906101000a900473ffffffffffffffffffffffffffffffffffffffff1673ffffffffffffffffffffffffffffffffffffffff166108fc349081150290604051600060405180830381858888f19350505050905080612068576040517f08c379a000000000000000000000000000000000000000000000000000000000815260040161205f90612cd8565b60405180910390fd5b60008260040160000160009054906101000a900473ffffffffffffffffffffffffffffffffffffffff1690508073ffffffffffffffffffffffffffffffffffffffff166323b872dd308560010160009054906101000a900473ffffffffffffffffffffffffffffffffffffffff1686600401600101546040518463ffffffff1660e01b81526004016120fc93929190612c64565b600060405180830381600087803b15801561211657600080fd5b505af115801561212a573d6000803e3d6000fd5b5050505060008360070160026101000a81548160ff02191690831515021790555060018360070160036101000a81548160ff021916908315150217905550887ffa2566d2a0191d4e94fe86ecddf448013cf426fbfda83d475391735e5c5cc85760016040516121999190612cbd565b60405180910390a2505050505050505050565b600160205281600052604060002081815481106121c857600080fd5b90600052602060002001600091509150505481565b806000805490508110612225576040517f08c379a000000000000000000000000000000000000000000000000000000000815260040161221c90612e38565b60405180910390fd5b8160008181548110612260577f4e487b7100000000000000000000000000000000000000000000000000000000600052603260045260246000fd5b906000526020600020906008020160070160039054906101000a900460ff16156122bf576040517f08c379a00000000000000000000000000000000000000000000000000000000081526004016122b690612df8565b60405180910390fd5b82600081815481106122fa577f4e487b7100000000000000000000000000000000000000000000000000000000600052603260045260246000fd5b906000526020600020906008020160070160029054906101000a900460ff1615612359576040517f08c379a000000000000000000000000000000000000000000000000000000000815260040161235090612e18565b60405180910390fd5b6000808581548110612394577f4e487b7100000000000000000000000000000000000000000000000000000000600052603260045260246000fd5b906000526020600020906008020190508060070160009054906101000a900460ff1680156123d057508060070160019054906101000a900460ff165b61240f576040517f08c379a000000000000000000000000000000000000000000000000000000000815260040161240690612d18565b60405180910390fd5b60018160070160026101000a81548160ff021916908315150217905550847f77a86aa96233b4ed87b72b998e9b9e8b207ca1e4070b49c0622f7e0444fd6cb860405160405180910390a25050505050565b604051806101400160405280600073ffffffffffffffffffffffffffffffffffffffff168152602001600073ffffffffffffffffffffffffffffffffffffffff16815260200160008152602001600081526020016124bc6124ed565b8152602001600081526020016000151581526020016000151581526020016000151581526020016000151581525090565b6040518060400160405280600073ffffffffffffffffffffffffffffffffffffffff168152602001600081525090565b60008135905061252c816134e3565b92915050565b600081359050612541816134fa565b92915050565b60008151905061255681613511565b92915050565b60006040828403121561256e57600080fd5b6125786040612f34565b905060006125888482850161251d565b600083015250602061259c848285016125a8565b60208301525092915050565b6000813590506125b781613528565b92915050565b60008060008060008060e087890312156125d657600080fd5b60006125e489828a01612532565b96505060206125f589828a0161251d565b955050604061260689828a016125a8565b945050606061261789828a016125a8565b935050608061262889828a0161255c565b92505060c061263989828a016125a8565b9150509295509295509295565b6000806040838503121561265957600080fd5b60006126678582860161251d565b9250506020612678858286016125a8565b9150509250929050565b60006020828403121561269457600080fd5b60006126a284828501612547565b91505092915050565b6000602082840312156126bd57600080fd5b60006126cb848285016125a8565b91505092915050565b600080604083850312156126e757600080fd5b60006126f5858286016125a8565b9250506020612706858286016125a8565b9150509250929050565b600061271c83836129ee565b6101608301905092915050565b61273281613053565b82525050565b6127418161300b565b82525050565b61275081612ff9565b82525050565b61275f81612ff9565b82525050565b600061277082612f69565b61277a8185612f81565b935061278583612f59565b8060005b838110156127b657815161279d8882612710565b97506127a883612f74565b925050600181019050612789565b5085935050505092915050565b6127cc8161301d565b82525050565b6127db8161301d565b82525050565b60006127ee602583612f92565b91506127f982613172565b604082019050919050565b6000612811602883612f92565b915061281c826131c1565b604082019050919050565b6000612834601383612f92565b915061283f82613210565b602082019050919050565b6000612857601f83612f92565b915061286282613239565b602082019050919050565b600061287a601483612f92565b915061288582613262565b602082019050919050565b600061289d602383612f92565b91506128a88261328b565b604082019050919050565b60006128c0602783612f92565b91506128cb826132da565b604082019050919050565b60006128e3602f83612f92565b91506128ee82613329565b604082019050919050565b6000612906602583612f92565b915061291182613378565b604082019050919050565b6000612929601e83612f92565b9150612934826133c7565b602082019050919050565b600061294c601b83612f92565b9150612957826133f0565b602082019050919050565b600061296f601883612f92565b915061297a82613419565b602082019050919050565b6000612992601f83612f92565b915061299d82613442565b602082019050919050565b60006129b5603083612f92565b91506129c08261346b565b604082019050919050565b60006129d8601783612f92565b91506129e3826134ba565b602082019050919050565b61016082016000820151612a056000850182612738565b506020820151612a186020850182612747565b506040820151612a2b6040850182612be6565b506060820151612a3e6060850182612be6565b506080820151612a516080850182612b88565b5060a0820151612a6460c0850182612be6565b5060c0820151612a7760e08501826127c3565b5060e0820151612a8b6101008501826127c3565b50610100820151612aa06101208501826127c3565b50610120820151612ab56101408501826127c3565b50505050565b61016082016000820151612ad26000850182612738565b506020820151612ae56020850182612747565b506040820151612af86040850182612be6565b506060820151612b0b6060850182612be6565b506080820151612b1e6080850182612b88565b5060a0820151612b3160c0850182612be6565b5060c0820151612b4460e08501826127c3565b5060e0820151612b586101008501826127c3565b50610100820151612b6d6101208501826127c3565b50610120820151612b826101408501826127c3565b50505050565b604082016000820151612b9e6000850182612747565b506020820151612bb16020850182612be6565b50505050565b604082016000820151612bcd6000850182612747565b506020820151612be06020850182612be6565b50505050565b612bef81613049565b82525050565b612bfe81613049565b82525050565b6000604082019050612c196000830185612756565b612c266020830184612756565b9392505050565b6000606082019050612c426000830186612756565b612c4f6020830185612729565b612c5c6040830184612bf5565b949350505050565b6000606082019050612c796000830186612756565b612c866020830185612756565b612c936040830184612bf5565b949350505050565b60006020820190508181036000830152612cb58184612765565b905092915050565b6000602082019050612cd260008301846127d2565b92915050565b60006020820190508181036000830152612cf1816127e1565b9050919050565b60006020820190508181036000830152612d1181612804565b9050919050565b60006020820190508181036000830152612d3181612827565b9050919050565b60006020820190508181036000830152612d518161284a565b9050919050565b60006020820190508181036000830152612d718161286d565b9050919050565b60006020820190508181036000830152612d9181612890565b9050919050565b60006020820190508181036000830152612db1816128b3565b9050919050565b60006020820190508181036000830152612dd1816128d6565b9050919050565b60006020820190508181036000830152612df1816128f9565b9050919050565b60006020820190508181036000830152612e118161291c565b9050919050565b60006020820190508181036000830152612e318161293f565b9050919050565b60006020820190508181036000830152612e5181612962565b9050919050565b60006020820190508181036000830152612e7181612985565b9050919050565b60006020820190508181036000830152612e91816129a8565b9050919050565b60006020820190508181036000830152612eb1816129cb565b9050919050565b600061016082019050612ece6000830184612abb565b92915050565b6000602082019050612ee96000830184612bf5565b92915050565b600060a082019050612f046000830187612bf5565b612f116020830186612bf5565b612f1e6040830185612bb7565b612f2b6080830184612bf5565b95945050505050565b6000612f3e612f4f565b9050612f4a8282613089565b919050565b6000604051905090565b6000819050602082019050919050565b600081519050919050565b6000602082019050919050565b600082825260208201905092915050565b600082825260208201905092915050565b6000612fae82613049565b9150612fb983613049565b9250827fffffffffffffffffffffffffffffffffffffffffffffffffffffffffffffffff03821115612fee57612fed613103565b5b828201905092915050565b600061300482613029565b9050919050565b600061301682613029565b9050919050565b60008115159050919050565b600073ffffffffffffffffffffffffffffffffffffffff82169050919050565b6000819050919050565b600061305e82613065565b9050919050565b600061307082613077565b9050919050565b600061308282613029565b9050919050565b61309282613161565b810181811067ffffffffffffffff821117156130b1576130b0613132565b5b80604052505050565b60006130c582613049565b91507fffffffffffffffffffffffffffffffffffffffffffffffffffffffffffffffff8214156130f8576130f7613103565b5b600182019050919050565b7f4e487b7100000000000000000000000000000000000000000000000000000000600052601160045260246000fd5b7f4e487b7100000000000000000000000000000000000000000000000000000000600052604160045260246000fd5b6000601f19601f8301169050919050565b7f536f6d657468696e672077656e742077726f6e6720776974682074686520706160008201527f796d656e74000000000000000000000000000000000000000000000000000000602082015250565b7f506c6561736520706179206261636b2074686520657861637420616d6f756e7460008201527f20796f75206f7765000000000000000000000000000000000000000000000000602082015250565b7f4c6f616e20697320756e636f6e6669726d656400000000000000000000000000600082015250565b7f54686973206c6f616e7320646561646c696e6520697320657863656564656400600082015250565b7f446561646c696e65206e6f742072656163686564000000000000000000000000600082015250565b7f596f7520617265206e6f7420746865206c656e646572206f662074686973206c60008201527f6f616e0000000000000000000000000000000000000000000000000000000000602082015250565b7f546f6b656e206973206e6f7420617070726f76656420666f722074686973206360008201527f6f6e747261637400000000000000000000000000000000000000000000000000602082015250565b7f4e657720646561646c696e65206e6565647320746f206265206166746572206360008201527f757272656e7420646561646c696e650000000000000000000000000000000000602082015250565b7f596f7520617265206e6f742074686520626f72726f776572206f66207468697360008201527f206c6f616e000000000000000000000000000000000000000000000000000000602082015250565b7f54686973206c6f616e2077617320616c72656164792065786563757465640000600082015250565b7f54686973206c6f616e20697320616c7265616479206163746976650000000000600082015250565b7f54686973206c6f616e20646f6573206e6f742065786973740000000000000000600082015250565b7f596f7520616c726561647920636f6e6669726d65642074686973206c6f616e00600082015250565b7f506c656173652073656e642074686520616d6f756e7420796f7520616772656560008201527f6420746f206c6f616e696e67206f757400000000000000000000000000000000602082015250565b7f54686973206c6f616e206973206e6f7420616374697665000000000000000000600082015250565b6134ec81612ff9565b81146134f757600080fd5b50565b6135038161300b565b811461350e57600080fd5b50565b61351a8161301d565b811461352557600080fd5b50565b61353181613049565b811461353c57600080fd5b5056fea2646970667358221220d4859aac96c0fdc3bfe4898777b7307b0a844d4dd7a3eb8d5ee46091442c459a64736f6c63430008040033",
  "linkReferences": {},
  "deployedLinkReferences": {}
}